{
  "abi": [
    {
      "inputs": [
        {
          "internalType": "uint256",
          "name": "id",
          "type": "uint256"
        }
      ],
      "name": "addJobCompleted",
      "outputs": [],
      "stateMutability": "nonpayable",
      "type": "function"
    },
    {
      "inputs": [
        {
          "internalType": "uint256",
          "name": "id",
          "type": "uint256"
        }
      ],
      "name": "addJobInProgress",
      "outputs": [],
      "stateMutability": "nonpayable",
      "type": "function"
    },
    {
      "inputs": [
        {
          "internalType": "uint256",
          "name": "id",
          "type": "uint256"
        }
      ],
      "name": "addJobRejected",
      "outputs": [],
      "stateMutability": "nonpayable",
      "type": "function"
    },
    {
      "inputs": [
        {
          "internalType": "uint256",
          "name": "id",
          "type": "uint256"
        }
      ],
      "name": "addPendingJobRequest",
      "outputs": [],
      "stateMutability": "nonpayable",
      "type": "function"
    },
    {
      "inputs": [
        {
          "internalType": "uint256",
          "name": "id",
          "type": "uint256"
        }
      ],
      "name": "addPendingWorkRequest",
      "outputs": [],
      "stateMutability": "nonpayable",
      "type": "function"
    },
    {
      "inputs": [
        {
          "internalType": "uint256",
          "name": "id",
          "type": "uint256"
        }
      ],
      "name": "addWorkCompleted",
      "outputs": [],
      "stateMutability": "nonpayable",
      "type": "function"
    },
    {
      "inputs": [
        {
          "internalType": "uint256",
          "name": "id",
          "type": "uint256"
        }
      ],
      "name": "addWorkInProgress",
      "outputs": [],
      "stateMutability": "nonpayable",
      "type": "function"
    },
    {
      "inputs": [
        {
          "internalType": "uint256",
          "name": "id",
          "type": "uint256"
        }
      ],
      "name": "addWorkRejected",
      "outputs": [],
      "stateMutability": "nonpayable",
      "type": "function"
    },
    {
      "inputs": [],
      "name": "createNewUser",
      "outputs": [],
      "stateMutability": "nonpayable",
      "type": "function"
    },
    {
      "inputs": [],
      "name": "getJobCompleted",
      "outputs": [
        {
          "internalType": "uint256[]",
          "name": "",
          "type": "uint256[]"
        }
      ],
      "stateMutability": "view",
      "type": "function"
    },
    {
      "inputs": [],
      "name": "getJobInProgress",
      "outputs": [
        {
          "internalType": "uint256[]",
          "name": "",
          "type": "uint256[]"
        }
      ],
      "stateMutability": "view",
      "type": "function"
    },
    {
      "inputs": [],
      "name": "getJobRejected",
      "outputs": [
        {
          "internalType": "uint256[]",
          "name": "",
          "type": "uint256[]"
        }
      ],
      "stateMutability": "view",
      "type": "function"
    },
    {
      "inputs": [],
      "name": "getPendingJobRequests",
      "outputs": [
        {
          "internalType": "uint256[]",
          "name": "",
          "type": "uint256[]"
        }
      ],
      "stateMutability": "view",
      "type": "function"
    },
    {
      "inputs": [],
      "name": "getPendingWorkRequests",
      "outputs": [
        {
          "internalType": "uint256[]",
          "name": "",
          "type": "uint256[]"
        }
      ],
      "stateMutability": "view",
      "type": "function"
    },
    {
      "inputs": [],
      "name": "getRating",
      "outputs": [
        {
          "internalType": "uint8",
          "name": "",
          "type": "uint8"
        }
      ],
      "stateMutability": "view",
      "type": "function"
    },
    {
      "inputs": [],
      "name": "getWorkCompleted",
      "outputs": [
        {
          "internalType": "uint256[]",
          "name": "",
          "type": "uint256[]"
        }
      ],
      "stateMutability": "view",
      "type": "function"
    },
    {
      "inputs": [],
      "name": "getWorkInProgress",
      "outputs": [
        {
          "internalType": "uint256[]",
          "name": "",
          "type": "uint256[]"
        }
      ],
      "stateMutability": "view",
      "type": "function"
    },
    {
      "inputs": [],
      "name": "getWorkRejected",
      "outputs": [
        {
          "internalType": "uint256[]",
          "name": "",
          "type": "uint256[]"
        }
      ],
      "stateMutability": "view",
      "type": "function"
    },
    {
      "inputs": [
        {
          "internalType": "uint8",
          "name": "newRating",
          "type": "uint8"
        }
      ],
      "name": "setRating",
      "outputs": [],
      "stateMutability": "nonpayable",
      "type": "function"
    }
  ],
  "devdoc": {
    "kind": "dev",
    "methods": {},
    "version": 1
  },
  "evm": {
    "assembly": "    /* \"Users.sol\":69:4017  contract Users {... */\n  mstore(0x40, 0x80)\n  callvalue\n  dup1\n  iszero\n  tag_1\n  jumpi\n  0x00\n  dup1\n  revert\ntag_1:\n  pop\n  dataSize(sub_0)\n  dup1\n  dataOffset(sub_0)\n  0x00\n  codecopy\n  0x00\n  return\nstop\n\nsub_0: assembly {\n        /* \"Users.sol\":69:4017  contract Users {... */\n      mstore(0x40, 0x80)\n      callvalue\n      dup1\n      iszero\n      tag_1\n      jumpi\n      0x00\n      dup1\n      revert\n    tag_1:\n      pop\n      jumpi(tag_2, lt(calldatasize, 0x04))\n      shr(0xe0, calldataload(0x00))\n      dup1\n      0x898de5bb\n      gt\n      tag_22\n      jumpi\n      dup1\n      0xe9a510e8\n      gt\n      tag_23\n      jumpi\n      dup1\n      0xf6e21b4b\n      gt\n      tag_24\n      jumpi\n      dup1\n      0xf6e21b4b\n      eq\n      tag_19\n      jumpi\n      dup1\n      0xf9f52bfd\n      eq\n      tag_20\n      jumpi\n      dup1\n      0xfed2248e\n      eq\n      tag_21\n      jumpi\n      0x00\n      dup1\n      revert\n    tag_24:\n      dup1\n      0xe9a510e8\n      eq\n      tag_17\n      jumpi\n      dup1\n      0xf02aba61\n      eq\n      tag_18\n      jumpi\n      0x00\n      dup1\n      revert\n    tag_23:\n      dup1\n      0xb3c3ffc9\n      gt\n      tag_25\n      jumpi\n      dup1\n      0xb3c3ffc9\n      eq\n      tag_14\n      jumpi\n      dup1\n      0xbdaf07eb\n      eq\n      tag_15\n      jumpi\n      dup1\n      0xbeaca3b1\n      eq\n      tag_16\n      jumpi\n      0x00\n      dup1\n      revert\n    tag_25:\n      dup1\n      0x898de5bb\n      eq\n      tag_12\n      jumpi\n      dup1\n      0x9aaea69a\n      eq\n      tag_13\n      jumpi\n      0x00\n      dup1\n      revert\n    tag_22:\n      dup1\n      0x50afb452\n      gt\n      tag_26\n      jumpi\n      dup1\n      0x6e7d695b\n      gt\n      tag_27\n      jumpi\n      dup1\n      0x6e7d695b\n      eq\n      tag_9\n      jumpi\n      dup1\n      0x75e554d7\n      eq\n      tag_10\n      jumpi\n      dup1\n      0x895f04f2\n      eq\n      tag_11\n      jumpi\n      0x00\n      dup1\n      revert\n    tag_27:\n      dup1\n      0x50afb452\n      eq\n      tag_7\n      jumpi\n      dup1\n      0x68fce07b\n      eq\n      tag_8\n      jumpi\n      0x00\n      dup1\n      revert\n    tag_26:\n      dup1\n      0x02e913cb\n      eq\n      tag_3\n      jumpi\n      dup1\n      0x05cf8d5d\n      eq\n      tag_4\n      jumpi\n      dup1\n      0x37024a6e\n      eq\n      tag_5\n      jumpi\n      dup1\n      0x3f312adf\n      eq\n      tag_6\n      jumpi\n    tag_2:\n      0x00\n      dup1\n      revert\n        /* \"Users.sol\":638:804  function setRating(uint8 newRating) public {... */\n    tag_3:\n      tag_28\n      tag_29\n      calldatasize\n      0x04\n      tag_30\n      jump\t// in\n    tag_29:\n      tag_31\n      jump\t// in\n    tag_28:\n      stop\n        /* \"Users.sol\":810:977  function getRating() public view returns (uint8) {... */\n    tag_4:\n      tag_32\n      tag_33\n      jump\t// in\n    tag_32:\n      mload(0x40)\n        /* \"#utility.yul\":460:464   */\n      0xff\n        /* \"#utility.yul\":448:465   */\n      swap1\n      swap2\n      and\n        /* \"#utility.yul\":430:466   */\n      dup2\n      mstore\n        /* \"#utility.yul\":418:420   */\n      0x20\n        /* \"#utility.yul\":403:421   */\n      add\n        /* \"Users.sol\":810:977  function getRating() public view returns (uint8) {... */\n    tag_34:\n      mload(0x40)\n      dup1\n      swap2\n      sub\n      swap1\n      return\n        /* \"Users.sol\":1957:2151  function getWorkInProgress() public view returns (uint256[] memory) {... */\n    tag_5:\n      tag_36\n      tag_37\n      jump\t// in\n    tag_36:\n      mload(0x40)\n      tag_34\n      swap2\n      swap1\n      tag_39\n      jump\t// in\n        /* \"Users.sol\":1172:1376  function getPendingWorkRequests() public view returns (uint256[] memory) {... */\n    tag_6:\n      tag_36\n      tag_41\n      jump\t// in\n        /* \"Users.sol\":471:632  function createNewUser() external {... */\n    tag_7:\n      tag_28\n      tag_44\n      jump\t// in\n        /* \"Users.sol\":3457:3647  function getWorkRejected() public view returns (uint256[] memory) {... */\n    tag_8:\n      tag_36\n      tag_46\n      jump\t// in\n        /* \"Users.sol\":3085:3275  function getJobCompleted() public view returns (uint256[] memory) {... */\n    tag_9:\n      tag_36\n      tag_49\n      jump\t// in\n        /* \"Users.sol\":1382:1563  function addPendingJobRequest(uint256 id) public {... */\n    tag_10:\n      tag_28\n      tag_52\n      calldatasize\n      0x04\n      tag_53\n      jump\t// in\n    tag_52:\n      tag_54\n      jump\t// in\n        /* \"Users.sol\":3827:4015  function getJobRejected() public view returns (uint256[] memory) {... */\n    tag_11:\n      tag_36\n      tag_56\n      jump\t// in\n        /* \"Users.sol\":3653:3821  function addJobRejected(uint256 id) public {... */\n    tag_12:\n      tag_28\n      tag_59\n      calldatasize\n      0x04\n      tag_53\n      jump\t// in\n    tag_59:\n      tag_60\n      jump\t// in\n        /* \"Users.sol\":2533:2705  function addWorkCompleted(uint256 id) public {... */\n    tag_13:\n      tag_28\n      tag_62\n      calldatasize\n      0x04\n      tag_53\n      jump\t// in\n    tag_62:\n      tag_63\n      jump\t// in\n        /* \"Users.sol\":2711:2903  function getWorkCompleted() public view returns (uint256[] memory) {... */\n    tag_14:\n      tag_36\n      tag_65\n      jump\t// in\n        /* \"Users.sol\":2157:2329  function addJobInProgress(uint256 id) public {... */\n    tag_15:\n      tag_28\n      tag_68\n      calldatasize\n      0x04\n      tag_53\n      jump\t// in\n    tag_68:\n      tag_69\n      jump\t// in\n        /* \"Users.sol\":1777:1951  function addWorkInProgress(uint256 id) public {... */\n    tag_16:\n      tag_28\n      tag_71\n      calldatasize\n      0x04\n      tag_53\n      jump\t// in\n    tag_71:\n      tag_72\n      jump\t// in\n        /* \"Users.sol\":1569:1771  function getPendingJobRequests() public view returns (uint256[] memory) {... */\n    tag_17:\n      tag_36\n      tag_74\n      jump\t// in\n        /* \"Users.sol\":3281:3451  function addWorkRejected(uint256 id) public {... */\n    tag_18:\n      tag_28\n      tag_77\n      calldatasize\n      0x04\n      tag_53\n      jump\t// in\n    tag_77:\n      tag_78\n      jump\t// in\n        /* \"Users.sol\":983:1166  function addPendingWorkRequest(uint256 id) public {... */\n    tag_19:\n      tag_28\n      tag_80\n      calldatasize\n      0x04\n      tag_53\n      jump\t// in\n    tag_80:\n      tag_81\n      jump\t// in\n        /* \"Users.sol\":2335:2527  function getJobInProgress() public view returns (uint256[] memory) {... */\n    tag_20:\n      tag_36\n      tag_83\n      jump\t// in\n        /* \"Users.sol\":2909:3079  function addJobCompleted(uint256 id) public {... */\n    tag_21:\n      tag_28\n      tag_86\n      calldatasize\n      0x04\n      tag_53\n      jump\t// in\n    tag_86:\n      tag_87\n      jump\t// in\n        /* \"Users.sol\":638:804  function setRating(uint8 newRating) public {... */\n    tag_31:\n        /* \"Users.sol\":705:715  msg.sender */\n      caller\n        /* \"Users.sol\":699:704  users */\n      0x00\n        /* \"Users.sol\":699:716  users[msg.sender] */\n      swap1\n      dup2\n      mstore\n      0x20\n      dup2\n      swap1\n      mstore\n      0x40\n      swap1\n      keccak256\n        /* \"Users.sol\":699:727  users[msg.sender].registered */\n      sload\n      0xff\n      and\n        /* \"Users.sol\":691:751  require(users[msg.sender].registered, \"User not registered\") */\n      tag_89\n      jumpi\n      mload(0x40)\n      shl(0xe5, 0x461bcd)\n      dup2\n      mstore\n        /* \"#utility.yul\":1501:1503   */\n      0x20\n        /* \"Users.sol\":691:751  require(users[msg.sender].registered, \"User not registered\") */\n      0x04\n      dup3\n      add\n        /* \"#utility.yul\":1483:1504   */\n      mstore\n        /* \"#utility.yul\":1540:1542   */\n      0x13\n        /* \"#utility.yul\":1520:1538   */\n      0x24\n      dup3\n      add\n        /* \"#utility.yul\":1513:1543   */\n      mstore\n      shl(0x6a, 0x155cd95c881b9bdd081c9959da5cdd195c9959)\n        /* \"#utility.yul\":1559:1577   */\n      0x44\n      dup3\n      add\n        /* \"#utility.yul\":1552:1601   */\n      mstore\n        /* \"#utility.yul\":1618:1636   */\n      0x64\n      add\n        /* \"Users.sol\":691:751  require(users[msg.sender].registered, \"User not registered\") */\n    tag_90:\n      mload(0x40)\n      dup1\n      swap2\n      sub\n      swap1\n      revert\n    tag_89:\n        /* \"Users.sol\":767:777  msg.sender */\n      caller\n        /* \"Users.sol\":761:766  users */\n      0x00\n        /* \"Users.sol\":761:778  users[msg.sender] */\n      swap1\n      dup2\n      mstore\n      0x20\n      dup2\n      swap1\n      mstore\n      0x40\n      swap1\n      keccak256\n        /* \"Users.sol\":761:797  users[msg.sender].rating = newRating */\n      dup1\n      sload\n      0xff\n      swap1\n      swap3\n      and\n      0x0100\n      mul\n      not(0xff00)\n      swap1\n      swap3\n      and\n      swap2\n      swap1\n      swap2\n      or\n      swap1\n      sstore\n        /* \"Users.sol\":638:804  function setRating(uint8 newRating) public {... */\n      jump\t// out\n        /* \"Users.sol\":810:977  function getRating() public view returns (uint8) {... */\n    tag_33:\n        /* \"Users.sol\":883:893  msg.sender */\n      caller\n        /* \"Users.sol\":852:857  uint8 */\n      0x00\n        /* \"Users.sol\":877:894  users[msg.sender] */\n      swap1\n      dup2\n      mstore\n      0x20\n      dup2\n      swap1\n      mstore\n      0x40\n      dup2\n      keccak256\n        /* \"Users.sol\":877:905  users[msg.sender].registered */\n      sload\n      0xff\n      and\n        /* \"Users.sol\":869:929  require(users[msg.sender].registered, \"User not registered\") */\n      tag_93\n      jumpi\n      mload(0x40)\n      shl(0xe5, 0x461bcd)\n      dup2\n      mstore\n        /* \"#utility.yul\":1501:1503   */\n      0x20\n        /* \"Users.sol\":869:929  require(users[msg.sender].registered, \"User not registered\") */\n      0x04\n      dup3\n      add\n        /* \"#utility.yul\":1483:1504   */\n      mstore\n        /* \"#utility.yul\":1540:1542   */\n      0x13\n        /* \"#utility.yul\":1520:1538   */\n      0x24\n      dup3\n      add\n        /* \"#utility.yul\":1513:1543   */\n      mstore\n      shl(0x6a, 0x155cd95c881b9bdd081c9959da5cdd195c9959)\n        /* \"#utility.yul\":1559:1577   */\n      0x44\n      dup3\n      add\n        /* \"#utility.yul\":1552:1601   */\n      mstore\n        /* \"#utility.yul\":1618:1636   */\n      0x64\n      add\n        /* \"Users.sol\":869:929  require(users[msg.sender].registered, \"User not registered\") */\n      tag_90\n        /* \"#utility.yul\":1299:1642   */\n      jump\n        /* \"Users.sol\":869:929  require(users[msg.sender].registered, \"User not registered\") */\n    tag_93:\n      pop\n        /* \"Users.sol\":952:962  msg.sender */\n      caller\n        /* \"Users.sol\":946:951  users */\n      0x00\n        /* \"Users.sol\":946:963  users[msg.sender] */\n      swap1\n      dup2\n      mstore\n      0x20\n      dup2\n      swap1\n      mstore\n      0x40\n      swap1\n      keccak256\n        /* \"Users.sol\":946:970  users[msg.sender].rating */\n      sload\n      0x0100\n      swap1\n      div\n      0xff\n      and\n      swap1\n        /* \"Users.sol\":810:977  function getRating() public view returns (uint8) {... */\n      jump\t// out\n        /* \"Users.sol\":1957:2151  function getWorkInProgress() public view returns (uint256[] memory) {... */\n    tag_37:\n        /* \"Users.sol\":2049:2059  msg.sender */\n      caller\n        /* \"Users.sol\":2043:2048  users */\n      0x00\n        /* \"Users.sol\":2043:2060  users[msg.sender] */\n      swap1\n      dup2\n      mstore\n      0x20\n      dup2\n      swap1\n      mstore\n      0x40\n      swap1\n      keccak256\n        /* \"Users.sol\":2043:2071  users[msg.sender].registered */\n      sload\n        /* \"Users.sol\":2007:2023  uint256[] memory */\n      0x60\n      swap1\n        /* \"Users.sol\":2043:2071  users[msg.sender].registered */\n      0xff\n      and\n        /* \"Users.sol\":2035:2095  require(users[msg.sender].registered, \"User not registered\") */\n      tag_96\n      jumpi\n      mload(0x40)\n      shl(0xe5, 0x461bcd)\n      dup2\n      mstore\n        /* \"#utility.yul\":1501:1503   */\n      0x20\n        /* \"Users.sol\":2035:2095  require(users[msg.sender].registered, \"User not registered\") */\n      0x04\n      dup3\n      add\n        /* \"#utility.yul\":1483:1504   */\n      mstore\n        /* \"#utility.yul\":1540:1542   */\n      0x13\n        /* \"#utility.yul\":1520:1538   */\n      0x24\n      dup3\n      add\n        /* \"#utility.yul\":1513:1543   */\n      mstore\n      shl(0x6a, 0x155cd95c881b9bdd081c9959da5cdd195c9959)\n        /* \"#utility.yul\":1559:1577   */\n      0x44\n      dup3\n      add\n        /* \"#utility.yul\":1552:1601   */\n      mstore\n        /* \"#utility.yul\":1618:1636   */\n      0x64\n      add\n        /* \"Users.sol\":2035:2095  require(users[msg.sender].registered, \"User not registered\") */\n      tag_90\n        /* \"#utility.yul\":1299:1642   */\n      jump\n        /* \"Users.sol\":2035:2095  require(users[msg.sender].registered, \"User not registered\") */\n    tag_96:\n        /* \"Users.sol\":2118:2128  msg.sender */\n      caller\n        /* \"Users.sol\":2112:2117  users */\n      0x00\n        /* \"Users.sol\":2112:2129  users[msg.sender] */\n      swap1\n      dup2\n      mstore\n      0x20\n      dup2\n      dup2\n      mstore\n      0x40\n      swap2\n      dup3\n      swap1\n      keccak256\n        /* \"Users.sol\":2112:2144  users[msg.sender].workInProgress */\n      0x03\n      add\n        /* \"Users.sol\":2105:2144  return users[msg.sender].workInProgress */\n      dup1\n      sload\n      dup4\n      mload\n      dup2\n      dup5\n      mul\n      dup2\n      add\n      dup5\n      add\n      swap1\n      swap5\n      mstore\n      dup1\n      dup5\n      mstore\n        /* \"Users.sol\":2112:2144  users[msg.sender].workInProgress */\n      swap1\n      swap2\n        /* \"Users.sol\":2105:2144  return users[msg.sender].workInProgress */\n      dup4\n      add\n        /* \"Users.sol\":2112:2144  users[msg.sender].workInProgress */\n      dup3\n        /* \"Users.sol\":2105:2144  return users[msg.sender].workInProgress */\n      dup3\n      dup1\n      iszero\n      tag_98\n      jumpi\n      0x20\n      mul\n      dup3\n      add\n      swap2\n      swap1\n      0x00\n      mstore\n      keccak256(0x00, 0x20)\n      swap1\n    tag_99:\n      dup2\n      sload\n      dup2\n      mstore\n      0x20\n      add\n      swap1\n      0x01\n      add\n      swap1\n      dup1\n      dup4\n      gt\n      tag_99\n      jumpi\n    tag_98:\n      pop\n      pop\n      pop\n      pop\n      pop\n      swap1\n      pop\n        /* \"Users.sol\":1957:2151  function getWorkInProgress() public view returns (uint256[] memory) {... */\n      swap1\n      jump\t// out\n        /* \"Users.sol\":1172:1376  function getPendingWorkRequests() public view returns (uint256[] memory) {... */\n    tag_41:\n        /* \"Users.sol\":1269:1279  msg.sender */\n      caller\n        /* \"Users.sol\":1263:1268  users */\n      0x00\n        /* \"Users.sol\":1263:1280  users[msg.sender] */\n      swap1\n      dup2\n      mstore\n      0x20\n      dup2\n      swap1\n      mstore\n      0x40\n      swap1\n      keccak256\n        /* \"Users.sol\":1263:1291  users[msg.sender].registered */\n      sload\n        /* \"Users.sol\":1227:1243  uint256[] memory */\n      0x60\n      swap1\n        /* \"Users.sol\":1263:1291  users[msg.sender].registered */\n      0xff\n      and\n        /* \"Users.sol\":1255:1315  require(users[msg.sender].registered, \"User not registered\") */\n      tag_101\n      jumpi\n      mload(0x40)\n      shl(0xe5, 0x461bcd)\n      dup2\n      mstore\n        /* \"#utility.yul\":1501:1503   */\n      0x20\n        /* \"Users.sol\":1255:1315  require(users[msg.sender].registered, \"User not registered\") */\n      0x04\n      dup3\n      add\n        /* \"#utility.yul\":1483:1504   */\n      mstore\n        /* \"#utility.yul\":1540:1542   */\n      0x13\n        /* \"#utility.yul\":1520:1538   */\n      0x24\n      dup3\n      add\n        /* \"#utility.yul\":1513:1543   */\n      mstore\n      shl(0x6a, 0x155cd95c881b9bdd081c9959da5cdd195c9959)\n        /* \"#utility.yul\":1559:1577   */\n      0x44\n      dup3\n      add\n        /* \"#utility.yul\":1552:1601   */\n      mstore\n        /* \"#utility.yul\":1618:1636   */\n      0x64\n      add\n        /* \"Users.sol\":1255:1315  require(users[msg.sender].registered, \"User not registered\") */\n      tag_90\n        /* \"#utility.yul\":1299:1642   */\n      jump\n        /* \"Users.sol\":1255:1315  require(users[msg.sender].registered, \"User not registered\") */\n    tag_101:\n        /* \"Users.sol\":1338:1348  msg.sender */\n      caller\n        /* \"Users.sol\":1332:1337  users */\n      0x00\n        /* \"Users.sol\":1332:1349  users[msg.sender] */\n      swap1\n      dup2\n      mstore\n      0x20\n      dup2\n      dup2\n      mstore\n      0x40\n      swap2\n      dup3\n      swap1\n      keccak256\n        /* \"Users.sol\":1332:1369  users[msg.sender].pendingWorkRequests */\n      0x01\n      add\n        /* \"Users.sol\":1325:1369  return users[msg.sender].pendingWorkRequests */\n      dup1\n      sload\n      dup4\n      mload\n      dup2\n      dup5\n      mul\n      dup2\n      add\n      dup5\n      add\n      swap1\n      swap5\n      mstore\n      dup1\n      dup5\n      mstore\n        /* \"Users.sol\":1332:1369  users[msg.sender].pendingWorkRequests */\n      swap1\n      swap2\n        /* \"Users.sol\":1325:1369  return users[msg.sender].pendingWorkRequests */\n      dup4\n      add\n        /* \"Users.sol\":1332:1369  users[msg.sender].pendingWorkRequests */\n      dup3\n        /* \"Users.sol\":1325:1369  return users[msg.sender].pendingWorkRequests */\n      dup3\n      dup1\n      iszero\n      tag_98\n      jumpi\n      0x20\n      mul\n      dup3\n      add\n      swap2\n      swap1\n      0x00\n      mstore\n      keccak256(0x00, 0x20)\n      swap1\n      dup2\n      sload\n      dup2\n      mstore\n      0x20\n      add\n      swap1\n      0x01\n      add\n      swap1\n      dup1\n      dup4\n      gt\n      tag_99\n      jumpi\n      pop\n      pop\n      pop\n      pop\n      pop\n      swap1\n      pop\n        /* \"Users.sol\":1172:1376  function getPendingWorkRequests() public view returns (uint256[] memory) {... */\n      swap1\n      jump\t// out\n        /* \"Users.sol\":471:632  function createNewUser() external {... */\n    tag_44:\n        /* \"Users.sol\":530:540  msg.sender */\n      caller\n        /* \"Users.sol\":524:529  users */\n      0x00\n        /* \"Users.sol\":524:541  users[msg.sender] */\n      swap1\n      dup2\n      mstore\n      0x20\n      dup2\n      swap1\n      mstore\n      0x40\n      swap1\n      keccak256\n        /* \"Users.sol\":524:552  users[msg.sender].registered */\n      sload\n      0xff\n      and\n        /* \"Users.sol\":523:552  !users[msg.sender].registered */\n      iszero\n        /* \"Users.sol\":515:580  require(!users[msg.sender].registered, \"User already registered\") */\n      tag_106\n      jumpi\n      mload(0x40)\n      shl(0xe5, 0x461bcd)\n      dup2\n      mstore\n        /* \"#utility.yul\":1849:1851   */\n      0x20\n        /* \"Users.sol\":515:580  require(!users[msg.sender].registered, \"User already registered\") */\n      0x04\n      dup3\n      add\n        /* \"#utility.yul\":1831:1852   */\n      mstore\n        /* \"#utility.yul\":1888:1890   */\n      0x17\n        /* \"#utility.yul\":1868:1886   */\n      0x24\n      dup3\n      add\n        /* \"#utility.yul\":1861:1891   */\n      mstore\n        /* \"#utility.yul\":1927:1952   */\n      0x5573657220616c72656164792072656769737465726564000000000000000000\n        /* \"#utility.yul\":1907:1925   */\n      0x44\n      dup3\n      add\n        /* \"#utility.yul\":1900:1953   */\n      mstore\n        /* \"#utility.yul\":1970:1988   */\n      0x64\n      add\n        /* \"Users.sol\":515:580  require(!users[msg.sender].registered, \"User already registered\") */\n      tag_90\n        /* \"#utility.yul\":1647:1994   */\n      jump\n        /* \"Users.sol\":515:580  require(!users[msg.sender].registered, \"User already registered\") */\n    tag_106:\n        /* \"Users.sol\":596:606  msg.sender */\n      caller\n        /* \"Users.sol\":590:595  users */\n      0x00\n        /* \"Users.sol\":590:607  users[msg.sender] */\n      swap1\n      dup2\n      mstore\n      0x20\n      dup2\n      swap1\n      mstore\n      0x40\n      swap1\n      keccak256\n        /* \"Users.sol\":590:625  users[msg.sender].registered = true */\n      dup1\n      sload\n      not(0xff)\n      and\n        /* \"Users.sol\":621:625  true */\n      0x01\n        /* \"Users.sol\":590:625  users[msg.sender].registered = true */\n      or\n      swap1\n      sstore\n        /* \"Users.sol\":471:632  function createNewUser() external {... */\n      jump\t// out\n        /* \"Users.sol\":3457:3647  function getWorkRejected() public view returns (uint256[] memory) {... */\n    tag_46:\n        /* \"Users.sol\":3547:3557  msg.sender */\n      caller\n        /* \"Users.sol\":3541:3546  users */\n      0x00\n        /* \"Users.sol\":3541:3558  users[msg.sender] */\n      swap1\n      dup2\n      mstore\n      0x20\n      dup2\n      swap1\n      mstore\n      0x40\n      swap1\n      keccak256\n        /* \"Users.sol\":3541:3569  users[msg.sender].registered */\n      sload\n        /* \"Users.sol\":3505:3521  uint256[] memory */\n      0x60\n      swap1\n        /* \"Users.sol\":3541:3569  users[msg.sender].registered */\n      0xff\n      and\n        /* \"Users.sol\":3533:3593  require(users[msg.sender].registered, \"User not registered\") */\n      tag_110\n      jumpi\n      mload(0x40)\n      shl(0xe5, 0x461bcd)\n      dup2\n      mstore\n        /* \"#utility.yul\":1501:1503   */\n      0x20\n        /* \"Users.sol\":3533:3593  require(users[msg.sender].registered, \"User not registered\") */\n      0x04\n      dup3\n      add\n        /* \"#utility.yul\":1483:1504   */\n      mstore\n        /* \"#utility.yul\":1540:1542   */\n      0x13\n        /* \"#utility.yul\":1520:1538   */\n      0x24\n      dup3\n      add\n        /* \"#utility.yul\":1513:1543   */\n      mstore\n      shl(0x6a, 0x155cd95c881b9bdd081c9959da5cdd195c9959)\n        /* \"#utility.yul\":1559:1577   */\n      0x44\n      dup3\n      add\n        /* \"#utility.yul\":1552:1601   */\n      mstore\n        /* \"#utility.yul\":1618:1636   */\n      0x64\n      add\n        /* \"Users.sol\":3533:3593  require(users[msg.sender].registered, \"User not registered\") */\n      tag_90\n        /* \"#utility.yul\":1299:1642   */\n      jump\n        /* \"Users.sol\":3533:3593  require(users[msg.sender].registered, \"User not registered\") */\n    tag_110:\n        /* \"Users.sol\":3616:3626  msg.sender */\n      caller\n        /* \"Users.sol\":3610:3615  users */\n      0x00\n        /* \"Users.sol\":3610:3627  users[msg.sender] */\n      swap1\n      dup2\n      mstore\n      0x20\n      dup2\n      dup2\n      mstore\n      0x40\n      swap2\n      dup3\n      swap1\n      keccak256\n        /* \"Users.sol\":3610:3640  users[msg.sender].workRejected */\n      0x07\n      add\n        /* \"Users.sol\":3603:3640  return users[msg.sender].workRejected */\n      dup1\n      sload\n      dup4\n      mload\n      dup2\n      dup5\n      mul\n      dup2\n      add\n      dup5\n      add\n      swap1\n      swap5\n      mstore\n      dup1\n      dup5\n      mstore\n        /* \"Users.sol\":3610:3640  users[msg.sender].workRejected */\n      swap1\n      swap2\n        /* \"Users.sol\":3603:3640  return users[msg.sender].workRejected */\n      dup4\n      add\n        /* \"Users.sol\":3610:3640  users[msg.sender].workRejected */\n      dup3\n        /* \"Users.sol\":3603:3640  return users[msg.sender].workRejected */\n      dup3\n      dup1\n      iszero\n      tag_98\n      jumpi\n      0x20\n      mul\n      dup3\n      add\n      swap2\n      swap1\n      0x00\n      mstore\n      keccak256(0x00, 0x20)\n      swap1\n      dup2\n      sload\n      dup2\n      mstore\n      0x20\n      add\n      swap1\n      0x01\n      add\n      swap1\n      dup1\n      dup4\n      gt\n      tag_99\n      jumpi\n      pop\n      pop\n      pop\n      pop\n      pop\n      swap1\n      pop\n        /* \"Users.sol\":3457:3647  function getWorkRejected() public view returns (uint256[] memory) {... */\n      swap1\n      jump\t// out\n        /* \"Users.sol\":3085:3275  function getJobCompleted() public view returns (uint256[] memory) {... */\n    tag_49:\n        /* \"Users.sol\":3175:3185  msg.sender */\n      caller\n        /* \"Users.sol\":3169:3174  users */\n      0x00\n        /* \"Users.sol\":3169:3186  users[msg.sender] */\n      swap1\n      dup2\n      mstore\n      0x20\n      dup2\n      swap1\n      mstore\n      0x40\n      swap1\n      keccak256\n        /* \"Users.sol\":3169:3197  users[msg.sender].registered */\n      sload\n        /* \"Users.sol\":3133:3149  uint256[] memory */\n      0x60\n      swap1\n        /* \"Users.sol\":3169:3197  users[msg.sender].registered */\n      0xff\n      and\n        /* \"Users.sol\":3161:3221  require(users[msg.sender].registered, \"User not registered\") */\n      tag_115\n      jumpi\n      mload(0x40)\n      shl(0xe5, 0x461bcd)\n      dup2\n      mstore\n        /* \"#utility.yul\":1501:1503   */\n      0x20\n        /* \"Users.sol\":3161:3221  require(users[msg.sender].registered, \"User not registered\") */\n      0x04\n      dup3\n      add\n        /* \"#utility.yul\":1483:1504   */\n      mstore\n        /* \"#utility.yul\":1540:1542   */\n      0x13\n        /* \"#utility.yul\":1520:1538   */\n      0x24\n      dup3\n      add\n        /* \"#utility.yul\":1513:1543   */\n      mstore\n      shl(0x6a, 0x155cd95c881b9bdd081c9959da5cdd195c9959)\n        /* \"#utility.yul\":1559:1577   */\n      0x44\n      dup3\n      add\n        /* \"#utility.yul\":1552:1601   */\n      mstore\n        /* \"#utility.yul\":1618:1636   */\n      0x64\n      add\n        /* \"Users.sol\":3161:3221  require(users[msg.sender].registered, \"User not registered\") */\n      tag_90\n        /* \"#utility.yul\":1299:1642   */\n      jump\n        /* \"Users.sol\":3161:3221  require(users[msg.sender].registered, \"User not registered\") */\n    tag_115:\n        /* \"Users.sol\":3244:3254  msg.sender */\n      caller\n        /* \"Users.sol\":3238:3243  users */\n      0x00\n        /* \"Users.sol\":3238:3255  users[msg.sender] */\n      swap1\n      dup2\n      mstore\n      0x20\n      dup2\n      dup2\n      mstore\n      0x40\n      swap2\n      dup3\n      swap1\n      keccak256\n        /* \"Users.sol\":3238:3268  users[msg.sender].jobCompleted */\n      0x06\n      add\n        /* \"Users.sol\":3231:3268  return users[msg.sender].jobCompleted */\n      dup1\n      sload\n      dup4\n      mload\n      dup2\n      dup5\n      mul\n      dup2\n      add\n      dup5\n      add\n      swap1\n      swap5\n      mstore\n      dup1\n      dup5\n      mstore\n        /* \"Users.sol\":3238:3268  users[msg.sender].jobCompleted */\n      swap1\n      swap2\n        /* \"Users.sol\":3231:3268  return users[msg.sender].jobCompleted */\n      dup4\n      add\n        /* \"Users.sol\":3238:3268  users[msg.sender].jobCompleted */\n      dup3\n        /* \"Users.sol\":3231:3268  return users[msg.sender].jobCompleted */\n      dup3\n      dup1\n      iszero\n      tag_98\n      jumpi\n      0x20\n      mul\n      dup3\n      add\n      swap2\n      swap1\n      0x00\n      mstore\n      keccak256(0x00, 0x20)\n      swap1\n      dup2\n      sload\n      dup2\n      mstore\n      0x20\n      add\n      swap1\n      0x01\n      add\n      swap1\n      dup1\n      dup4\n      gt\n      tag_99\n      jumpi\n      pop\n      pop\n      pop\n      pop\n      pop\n      swap1\n      pop\n        /* \"Users.sol\":3085:3275  function getJobCompleted() public view returns (uint256[] memory) {... */\n      swap1\n      jump\t// out\n        /* \"Users.sol\":1382:1563  function addPendingJobRequest(uint256 id) public {... */\n    tag_54:\n        /* \"Users.sol\":1455:1465  msg.sender */\n      caller\n        /* \"Users.sol\":1449:1454  users */\n      0x00\n        /* \"Users.sol\":1449:1466  users[msg.sender] */\n      swap1\n      dup2\n      mstore\n      0x20\n      dup2\n      swap1\n      mstore\n      0x40\n      swap1\n      keccak256\n        /* \"Users.sol\":1449:1477  users[msg.sender].registered */\n      sload\n      0xff\n      and\n        /* \"Users.sol\":1441:1501  require(users[msg.sender].registered, \"User not registered\") */\n      tag_120\n      jumpi\n      mload(0x40)\n      shl(0xe5, 0x461bcd)\n      dup2\n      mstore\n        /* \"#utility.yul\":1501:1503   */\n      0x20\n        /* \"Users.sol\":1441:1501  require(users[msg.sender].registered, \"User not registered\") */\n      0x04\n      dup3\n      add\n        /* \"#utility.yul\":1483:1504   */\n      mstore\n        /* \"#utility.yul\":1540:1542   */\n      0x13\n        /* \"#utility.yul\":1520:1538   */\n      0x24\n      dup3\n      add\n        /* \"#utility.yul\":1513:1543   */\n      mstore\n      shl(0x6a, 0x155cd95c881b9bdd081c9959da5cdd195c9959)\n        /* \"#utility.yul\":1559:1577   */\n      0x44\n      dup3\n      add\n        /* \"#utility.yul\":1552:1601   */\n      mstore\n        /* \"#utility.yul\":1618:1636   */\n      0x64\n      add\n        /* \"Users.sol\":1441:1501  require(users[msg.sender].registered, \"User not registered\") */\n      tag_90\n        /* \"#utility.yul\":1299:1642   */\n      jump\n        /* \"Users.sol\":1441:1501  require(users[msg.sender].registered, \"User not registered\") */\n    tag_120:\n        /* \"Users.sol\":1517:1527  msg.sender */\n      caller\n        /* \"Users.sol\":1511:1516  users */\n      0x00\n        /* \"Users.sol\":1511:1528  users[msg.sender] */\n      swap1\n      dup2\n      mstore\n      0x20\n      dup2\n      dup2\n      mstore\n      0x40\n      dup3\n      keccak256\n        /* \"Users.sol\":1511:1547  users[msg.sender].pendingJobRequests */\n      0x02\n      add\n        /* \"Users.sol\":1511:1556  users[msg.sender].pendingJobRequests.push(id) */\n      dup1\n      sload\n      0x01\n      dup2\n      add\n      dup3\n      sstore\n      swap1\n      dup4\n      mstore\n      swap2\n      keccak256\n      add\n      sstore\n        /* \"Users.sol\":1382:1563  function addPendingJobRequest(uint256 id) public {... */\n      jump\t// out\n        /* \"Users.sol\":3827:4015  function getJobRejected() public view returns (uint256[] memory) {... */\n    tag_56:\n        /* \"Users.sol\":3916:3926  msg.sender */\n      caller\n        /* \"Users.sol\":3910:3915  users */\n      0x00\n        /* \"Users.sol\":3910:3927  users[msg.sender] */\n      swap1\n      dup2\n      mstore\n      0x20\n      dup2\n      swap1\n      mstore\n      0x40\n      swap1\n      keccak256\n        /* \"Users.sol\":3910:3938  users[msg.sender].registered */\n      sload\n        /* \"Users.sol\":3874:3890  uint256[] memory */\n      0x60\n      swap1\n        /* \"Users.sol\":3910:3938  users[msg.sender].registered */\n      0xff\n      and\n        /* \"Users.sol\":3902:3962  require(users[msg.sender].registered, \"User not registered\") */\n      tag_124\n      jumpi\n      mload(0x40)\n      shl(0xe5, 0x461bcd)\n      dup2\n      mstore\n        /* \"#utility.yul\":1501:1503   */\n      0x20\n        /* \"Users.sol\":3902:3962  require(users[msg.sender].registered, \"User not registered\") */\n      0x04\n      dup3\n      add\n        /* \"#utility.yul\":1483:1504   */\n      mstore\n        /* \"#utility.yul\":1540:1542   */\n      0x13\n        /* \"#utility.yul\":1520:1538   */\n      0x24\n      dup3\n      add\n        /* \"#utility.yul\":1513:1543   */\n      mstore\n      shl(0x6a, 0x155cd95c881b9bdd081c9959da5cdd195c9959)\n        /* \"#utility.yul\":1559:1577   */\n      0x44\n      dup3\n      add\n        /* \"#utility.yul\":1552:1601   */\n      mstore\n        /* \"#utility.yul\":1618:1636   */\n      0x64\n      add\n        /* \"Users.sol\":3902:3962  require(users[msg.sender].registered, \"User not registered\") */\n      tag_90\n        /* \"#utility.yul\":1299:1642   */\n      jump\n        /* \"Users.sol\":3902:3962  require(users[msg.sender].registered, \"User not registered\") */\n    tag_124:\n        /* \"Users.sol\":3985:3995  msg.sender */\n      caller\n        /* \"Users.sol\":3979:3984  users */\n      0x00\n        /* \"Users.sol\":3979:3996  users[msg.sender] */\n      swap1\n      dup2\n      mstore\n      0x20\n      dup2\n      dup2\n      mstore\n      0x40\n      swap2\n      dup3\n      swap1\n      keccak256\n        /* \"Users.sol\":3979:4008  users[msg.sender].jobRejected */\n      0x08\n      add\n        /* \"Users.sol\":3972:4008  return users[msg.sender].jobRejected */\n      dup1\n      sload\n      dup4\n      mload\n      dup2\n      dup5\n      mul\n      dup2\n      add\n      dup5\n      add\n      swap1\n      swap5\n      mstore\n      dup1\n      dup5\n      mstore\n        /* \"Users.sol\":3979:4008  users[msg.sender].jobRejected */\n      swap1\n      swap2\n        /* \"Users.sol\":3972:4008  return users[msg.sender].jobRejected */\n      dup4\n      add\n        /* \"Users.sol\":3979:4008  users[msg.sender].jobRejected */\n      dup3\n        /* \"Users.sol\":3972:4008  return users[msg.sender].jobRejected */\n      dup3\n      dup1\n      iszero\n      tag_98\n      jumpi\n      0x20\n      mul\n      dup3\n      add\n      swap2\n      swap1\n      0x00\n      mstore\n      keccak256(0x00, 0x20)\n      swap1\n      dup2\n      sload\n      dup2\n      mstore\n      0x20\n      add\n      swap1\n      0x01\n      add\n      swap1\n      dup1\n      dup4\n      gt\n      tag_99\n      jumpi\n      pop\n      pop\n      pop\n      pop\n      pop\n      swap1\n      pop\n        /* \"Users.sol\":3827:4015  function getJobRejected() public view returns (uint256[] memory) {... */\n      swap1\n      jump\t// out\n        /* \"Users.sol\":3653:3821  function addJobRejected(uint256 id) public {... */\n    tag_60:\n        /* \"Users.sol\":3720:3730  msg.sender */\n      caller\n        /* \"Users.sol\":3714:3719  users */\n      0x00\n        /* \"Users.sol\":3714:3731  users[msg.sender] */\n      swap1\n      dup2\n      mstore\n      0x20\n      dup2\n      swap1\n      mstore\n      0x40\n      swap1\n      keccak256\n        /* \"Users.sol\":3714:3742  users[msg.sender].registered */\n      sload\n      0xff\n      and\n        /* \"Users.sol\":3706:3766  require(users[msg.sender].registered, \"User not registered\") */\n      tag_129\n      jumpi\n      mload(0x40)\n      shl(0xe5, 0x461bcd)\n      dup2\n      mstore\n        /* \"#utility.yul\":1501:1503   */\n      0x20\n        /* \"Users.sol\":3706:3766  require(users[msg.sender].registered, \"User not registered\") */\n      0x04\n      dup3\n      add\n        /* \"#utility.yul\":1483:1504   */\n      mstore\n        /* \"#utility.yul\":1540:1542   */\n      0x13\n        /* \"#utility.yul\":1520:1538   */\n      0x24\n      dup3\n      add\n        /* \"#utility.yul\":1513:1543   */\n      mstore\n      shl(0x6a, 0x155cd95c881b9bdd081c9959da5cdd195c9959)\n        /* \"#utility.yul\":1559:1577   */\n      0x44\n      dup3\n      add\n        /* \"#utility.yul\":1552:1601   */\n      mstore\n        /* \"#utility.yul\":1618:1636   */\n      0x64\n      add\n        /* \"Users.sol\":3706:3766  require(users[msg.sender].registered, \"User not registered\") */\n      tag_90\n        /* \"#utility.yul\":1299:1642   */\n      jump\n        /* \"Users.sol\":3706:3766  require(users[msg.sender].registered, \"User not registered\") */\n    tag_129:\n        /* \"Users.sol\":3782:3792  msg.sender */\n      caller\n        /* \"Users.sol\":3776:3781  users */\n      0x00\n        /* \"Users.sol\":3776:3793  users[msg.sender] */\n      swap1\n      dup2\n      mstore\n      0x20\n      dup2\n      dup2\n      mstore\n      0x40\n      dup3\n      keccak256\n        /* \"Users.sol\":3776:3805  users[msg.sender].jobRejected */\n      0x08\n      add\n        /* \"Users.sol\":3776:3814  users[msg.sender].jobRejected.push(id) */\n      dup1\n      sload\n      0x01\n      dup2\n      add\n      dup3\n      sstore\n      swap1\n      dup4\n      mstore\n      swap2\n      keccak256\n      add\n      sstore\n        /* \"Users.sol\":3653:3821  function addJobRejected(uint256 id) public {... */\n      jump\t// out\n        /* \"Users.sol\":2533:2705  function addWorkCompleted(uint256 id) public {... */\n    tag_63:\n        /* \"Users.sol\":2602:2612  msg.sender */\n      caller\n        /* \"Users.sol\":2596:2601  users */\n      0x00\n        /* \"Users.sol\":2596:2613  users[msg.sender] */\n      swap1\n      dup2\n      mstore\n      0x20\n      dup2\n      swap1\n      mstore\n      0x40\n      swap1\n      keccak256\n        /* \"Users.sol\":2596:2624  users[msg.sender].registered */\n      sload\n      0xff\n      and\n        /* \"Users.sol\":2588:2648  require(users[msg.sender].registered, \"User not registered\") */\n      tag_133\n      jumpi\n      mload(0x40)\n      shl(0xe5, 0x461bcd)\n      dup2\n      mstore\n        /* \"#utility.yul\":1501:1503   */\n      0x20\n        /* \"Users.sol\":2588:2648  require(users[msg.sender].registered, \"User not registered\") */\n      0x04\n      dup3\n      add\n        /* \"#utility.yul\":1483:1504   */\n      mstore\n        /* \"#utility.yul\":1540:1542   */\n      0x13\n        /* \"#utility.yul\":1520:1538   */\n      0x24\n      dup3\n      add\n        /* \"#utility.yul\":1513:1543   */\n      mstore\n      shl(0x6a, 0x155cd95c881b9bdd081c9959da5cdd195c9959)\n        /* \"#utility.yul\":1559:1577   */\n      0x44\n      dup3\n      add\n        /* \"#utility.yul\":1552:1601   */\n      mstore\n        /* \"#utility.yul\":1618:1636   */\n      0x64\n      add\n        /* \"Users.sol\":2588:2648  require(users[msg.sender].registered, \"User not registered\") */\n      tag_90\n        /* \"#utility.yul\":1299:1642   */\n      jump\n        /* \"Users.sol\":2588:2648  require(users[msg.sender].registered, \"User not registered\") */\n    tag_133:\n        /* \"Users.sol\":2664:2674  msg.sender */\n      caller\n        /* \"Users.sol\":2658:2663  users */\n      0x00\n        /* \"Users.sol\":2658:2675  users[msg.sender] */\n      swap1\n      dup2\n      mstore\n      0x20\n      dup2\n      dup2\n      mstore\n      0x40\n      dup3\n      keccak256\n        /* \"Users.sol\":2658:2689  users[msg.sender].workCompleted */\n      0x05\n      add\n        /* \"Users.sol\":2658:2698  users[msg.sender].workCompleted.push(id) */\n      dup1\n      sload\n      0x01\n      dup2\n      add\n      dup3\n      sstore\n      swap1\n      dup4\n      mstore\n      swap2\n      keccak256\n      add\n      sstore\n        /* \"Users.sol\":2533:2705  function addWorkCompleted(uint256 id) public {... */\n      jump\t// out\n        /* \"Users.sol\":2711:2903  function getWorkCompleted() public view returns (uint256[] memory) {... */\n    tag_65:\n        /* \"Users.sol\":2802:2812  msg.sender */\n      caller\n        /* \"Users.sol\":2796:2801  users */\n      0x00\n        /* \"Users.sol\":2796:2813  users[msg.sender] */\n      swap1\n      dup2\n      mstore\n      0x20\n      dup2\n      swap1\n      mstore\n      0x40\n      swap1\n      keccak256\n        /* \"Users.sol\":2796:2824  users[msg.sender].registered */\n      sload\n        /* \"Users.sol\":2760:2776  uint256[] memory */\n      0x60\n      swap1\n        /* \"Users.sol\":2796:2824  users[msg.sender].registered */\n      0xff\n      and\n        /* \"Users.sol\":2788:2848  require(users[msg.sender].registered, \"User not registered\") */\n      tag_137\n      jumpi\n      mload(0x40)\n      shl(0xe5, 0x461bcd)\n      dup2\n      mstore\n        /* \"#utility.yul\":1501:1503   */\n      0x20\n        /* \"Users.sol\":2788:2848  require(users[msg.sender].registered, \"User not registered\") */\n      0x04\n      dup3\n      add\n        /* \"#utility.yul\":1483:1504   */\n      mstore\n        /* \"#utility.yul\":1540:1542   */\n      0x13\n        /* \"#utility.yul\":1520:1538   */\n      0x24\n      dup3\n      add\n        /* \"#utility.yul\":1513:1543   */\n      mstore\n      shl(0x6a, 0x155cd95c881b9bdd081c9959da5cdd195c9959)\n        /* \"#utility.yul\":1559:1577   */\n      0x44\n      dup3\n      add\n        /* \"#utility.yul\":1552:1601   */\n      mstore\n        /* \"#utility.yul\":1618:1636   */\n      0x64\n      add\n        /* \"Users.sol\":2788:2848  require(users[msg.sender].registered, \"User not registered\") */\n      tag_90\n        /* \"#utility.yul\":1299:1642   */\n      jump\n        /* \"Users.sol\":2788:2848  require(users[msg.sender].registered, \"User not registered\") */\n    tag_137:\n        /* \"Users.sol\":2871:2881  msg.sender */\n      caller\n        /* \"Users.sol\":2865:2870  users */\n      0x00\n        /* \"Users.sol\":2865:2882  users[msg.sender] */\n      swap1\n      dup2\n      mstore\n      0x20\n      dup2\n      dup2\n      mstore\n      0x40\n      swap2\n      dup3\n      swap1\n      keccak256\n        /* \"Users.sol\":2865:2896  users[msg.sender].workCompleted */\n      0x05\n      add\n        /* \"Users.sol\":2858:2896  return users[msg.sender].workCompleted */\n      dup1\n      sload\n      dup4\n      mload\n      dup2\n      dup5\n      mul\n      dup2\n      add\n      dup5\n      add\n      swap1\n      swap5\n      mstore\n      dup1\n      dup5\n      mstore\n        /* \"Users.sol\":2865:2896  users[msg.sender].workCompleted */\n      swap1\n      swap2\n        /* \"Users.sol\":2858:2896  return users[msg.sender].workCompleted */\n      dup4\n      add\n        /* \"Users.sol\":2865:2896  users[msg.sender].workCompleted */\n      dup3\n        /* \"Users.sol\":2858:2896  return users[msg.sender].workCompleted */\n      dup3\n      dup1\n      iszero\n      tag_98\n      jumpi\n      0x20\n      mul\n      dup3\n      add\n      swap2\n      swap1\n      0x00\n      mstore\n      keccak256(0x00, 0x20)\n      swap1\n      dup2\n      sload\n      dup2\n      mstore\n      0x20\n      add\n      swap1\n      0x01\n      add\n      swap1\n      dup1\n      dup4\n      gt\n      tag_99\n      jumpi\n      pop\n      pop\n      pop\n      pop\n      pop\n      swap1\n      pop\n        /* \"Users.sol\":2711:2903  function getWorkCompleted() public view returns (uint256[] memory) {... */\n      swap1\n      jump\t// out\n        /* \"Users.sol\":2157:2329  function addJobInProgress(uint256 id) public {... */\n    tag_69:\n        /* \"Users.sol\":2226:2236  msg.sender */\n      caller\n        /* \"Users.sol\":2220:2225  users */\n      0x00\n        /* \"Users.sol\":2220:2237  users[msg.sender] */\n      swap1\n      dup2\n      mstore\n      0x20\n      dup2\n      swap1\n      mstore\n      0x40\n      swap1\n      keccak256\n        /* \"Users.sol\":2220:2248  users[msg.sender].registered */\n      sload\n      0xff\n      and\n        /* \"Users.sol\":2212:2272  require(users[msg.sender].registered, \"User not registered\") */\n      tag_142\n      jumpi\n      mload(0x40)\n      shl(0xe5, 0x461bcd)\n      dup2\n      mstore\n        /* \"#utility.yul\":1501:1503   */\n      0x20\n        /* \"Users.sol\":2212:2272  require(users[msg.sender].registered, \"User not registered\") */\n      0x04\n      dup3\n      add\n        /* \"#utility.yul\":1483:1504   */\n      mstore\n        /* \"#utility.yul\":1540:1542   */\n      0x13\n        /* \"#utility.yul\":1520:1538   */\n      0x24\n      dup3\n      add\n        /* \"#utility.yul\":1513:1543   */\n      mstore\n      shl(0x6a, 0x155cd95c881b9bdd081c9959da5cdd195c9959)\n        /* \"#utility.yul\":1559:1577   */\n      0x44\n      dup3\n      add\n        /* \"#utility.yul\":1552:1601   */\n      mstore\n        /* \"#utility.yul\":1618:1636   */\n      0x64\n      add\n        /* \"Users.sol\":2212:2272  require(users[msg.sender].registered, \"User not registered\") */\n      tag_90\n        /* \"#utility.yul\":1299:1642   */\n      jump\n        /* \"Users.sol\":2212:2272  require(users[msg.sender].registered, \"User not registered\") */\n    tag_142:\n        /* \"Users.sol\":2288:2298  msg.sender */\n      caller\n        /* \"Users.sol\":2282:2287  users */\n      0x00\n        /* \"Users.sol\":2282:2299  users[msg.sender] */\n      swap1\n      dup2\n      mstore\n      0x20\n      dup2\n      dup2\n      mstore\n      0x40\n      dup3\n      keccak256\n        /* \"Users.sol\":2282:2313  users[msg.sender].jobInProgress */\n      0x04\n      add\n        /* \"Users.sol\":2282:2322  users[msg.sender].jobInProgress.push(id) */\n      dup1\n      sload\n      0x01\n      dup2\n      add\n      dup3\n      sstore\n      swap1\n      dup4\n      mstore\n      swap2\n      keccak256\n      add\n      sstore\n        /* \"Users.sol\":2157:2329  function addJobInProgress(uint256 id) public {... */\n      jump\t// out\n        /* \"Users.sol\":1777:1951  function addWorkInProgress(uint256 id) public {... */\n    tag_72:\n        /* \"Users.sol\":1847:1857  msg.sender */\n      caller\n        /* \"Users.sol\":1841:1846  users */\n      0x00\n        /* \"Users.sol\":1841:1858  users[msg.sender] */\n      swap1\n      dup2\n      mstore\n      0x20\n      dup2\n      swap1\n      mstore\n      0x40\n      swap1\n      keccak256\n        /* \"Users.sol\":1841:1869  users[msg.sender].registered */\n      sload\n      0xff\n      and\n        /* \"Users.sol\":1833:1893  require(users[msg.sender].registered, \"User not registered\") */\n      tag_146\n      jumpi\n      mload(0x40)\n      shl(0xe5, 0x461bcd)\n      dup2\n      mstore\n        /* \"#utility.yul\":1501:1503   */\n      0x20\n        /* \"Users.sol\":1833:1893  require(users[msg.sender].registered, \"User not registered\") */\n      0x04\n      dup3\n      add\n        /* \"#utility.yul\":1483:1504   */\n      mstore\n        /* \"#utility.yul\":1540:1542   */\n      0x13\n        /* \"#utility.yul\":1520:1538   */\n      0x24\n      dup3\n      add\n        /* \"#utility.yul\":1513:1543   */\n      mstore\n      shl(0x6a, 0x155cd95c881b9bdd081c9959da5cdd195c9959)\n        /* \"#utility.yul\":1559:1577   */\n      0x44\n      dup3\n      add\n        /* \"#utility.yul\":1552:1601   */\n      mstore\n        /* \"#utility.yul\":1618:1636   */\n      0x64\n      add\n        /* \"Users.sol\":1833:1893  require(users[msg.sender].registered, \"User not registered\") */\n      tag_90\n        /* \"#utility.yul\":1299:1642   */\n      jump\n        /* \"Users.sol\":1833:1893  require(users[msg.sender].registered, \"User not registered\") */\n    tag_146:\n        /* \"Users.sol\":1909:1919  msg.sender */\n      caller\n        /* \"Users.sol\":1903:1908  users */\n      0x00\n        /* \"Users.sol\":1903:1920  users[msg.sender] */\n      swap1\n      dup2\n      mstore\n      0x20\n      dup2\n      dup2\n      mstore\n      0x40\n      dup3\n      keccak256\n        /* \"Users.sol\":1903:1935  users[msg.sender].workInProgress */\n      0x03\n      add\n        /* \"Users.sol\":1903:1944  users[msg.sender].workInProgress.push(id) */\n      dup1\n      sload\n      0x01\n      dup2\n      add\n      dup3\n      sstore\n      swap1\n      dup4\n      mstore\n      swap2\n      keccak256\n      add\n      sstore\n        /* \"Users.sol\":1777:1951  function addWorkInProgress(uint256 id) public {... */\n      jump\t// out\n        /* \"Users.sol\":1569:1771  function getPendingJobRequests() public view returns (uint256[] memory) {... */\n    tag_74:\n        /* \"Users.sol\":1665:1675  msg.sender */\n      caller\n        /* \"Users.sol\":1659:1664  users */\n      0x00\n        /* \"Users.sol\":1659:1676  users[msg.sender] */\n      swap1\n      dup2\n      mstore\n      0x20\n      dup2\n      swap1\n      mstore\n      0x40\n      swap1\n      keccak256\n        /* \"Users.sol\":1659:1687  users[msg.sender].registered */\n      sload\n        /* \"Users.sol\":1623:1639  uint256[] memory */\n      0x60\n      swap1\n        /* \"Users.sol\":1659:1687  users[msg.sender].registered */\n      0xff\n      and\n        /* \"Users.sol\":1651:1711  require(users[msg.sender].registered, \"User not registered\") */\n      tag_150\n      jumpi\n      mload(0x40)\n      shl(0xe5, 0x461bcd)\n      dup2\n      mstore\n        /* \"#utility.yul\":1501:1503   */\n      0x20\n        /* \"Users.sol\":1651:1711  require(users[msg.sender].registered, \"User not registered\") */\n      0x04\n      dup3\n      add\n        /* \"#utility.yul\":1483:1504   */\n      mstore\n        /* \"#utility.yul\":1540:1542   */\n      0x13\n        /* \"#utility.yul\":1520:1538   */\n      0x24\n      dup3\n      add\n        /* \"#utility.yul\":1513:1543   */\n      mstore\n      shl(0x6a, 0x155cd95c881b9bdd081c9959da5cdd195c9959)\n        /* \"#utility.yul\":1559:1577   */\n      0x44\n      dup3\n      add\n        /* \"#utility.yul\":1552:1601   */\n      mstore\n        /* \"#utility.yul\":1618:1636   */\n      0x64\n      add\n        /* \"Users.sol\":1651:1711  require(users[msg.sender].registered, \"User not registered\") */\n      tag_90\n        /* \"#utility.yul\":1299:1642   */\n      jump\n        /* \"Users.sol\":1651:1711  require(users[msg.sender].registered, \"User not registered\") */\n    tag_150:\n        /* \"Users.sol\":1734:1744  msg.sender */\n      caller\n        /* \"Users.sol\":1728:1733  users */\n      0x00\n        /* \"Users.sol\":1728:1745  users[msg.sender] */\n      swap1\n      dup2\n      mstore\n      0x20\n      dup2\n      dup2\n      mstore\n      0x40\n      swap2\n      dup3\n      swap1\n      keccak256\n        /* \"Users.sol\":1728:1764  users[msg.sender].pendingJobRequests */\n      0x02\n      add\n        /* \"Users.sol\":1721:1764  return users[msg.sender].pendingJobRequests */\n      dup1\n      sload\n      dup4\n      mload\n      dup2\n      dup5\n      mul\n      dup2\n      add\n      dup5\n      add\n      swap1\n      swap5\n      mstore\n      dup1\n      dup5\n      mstore\n        /* \"Users.sol\":1728:1764  users[msg.sender].pendingJobRequests */\n      swap1\n      swap2\n        /* \"Users.sol\":1721:1764  return users[msg.sender].pendingJobRequests */\n      dup4\n      add\n        /* \"Users.sol\":1728:1764  users[msg.sender].pendingJobRequests */\n      dup3\n        /* \"Users.sol\":1721:1764  return users[msg.sender].pendingJobRequests */\n      dup3\n      dup1\n      iszero\n      tag_98\n      jumpi\n      0x20\n      mul\n      dup3\n      add\n      swap2\n      swap1\n      0x00\n      mstore\n      keccak256(0x00, 0x20)\n      swap1\n      dup2\n      sload\n      dup2\n      mstore\n      0x20\n      add\n      swap1\n      0x01\n      add\n      swap1\n      dup1\n      dup4\n      gt\n      tag_99\n      jumpi\n      pop\n      pop\n      pop\n      pop\n      pop\n      swap1\n      pop\n        /* \"Users.sol\":1569:1771  function getPendingJobRequests() public view returns (uint256[] memory) {... */\n      swap1\n      jump\t// out\n        /* \"Users.sol\":3281:3451  function addWorkRejected(uint256 id) public {... */\n    tag_78:\n        /* \"Users.sol\":3349:3359  msg.sender */\n      caller\n        /* \"Users.sol\":3343:3348  users */\n      0x00\n        /* \"Users.sol\":3343:3360  users[msg.sender] */\n      swap1\n      dup2\n      mstore\n      0x20\n      dup2\n      swap1\n      mstore\n      0x40\n      swap1\n      keccak256\n        /* \"Users.sol\":3343:3371  users[msg.sender].registered */\n      sload\n      0xff\n      and\n        /* \"Users.sol\":3335:3395  require(users[msg.sender].registered, \"User not registered\") */\n      tag_155\n      jumpi\n      mload(0x40)\n      shl(0xe5, 0x461bcd)\n      dup2\n      mstore\n        /* \"#utility.yul\":1501:1503   */\n      0x20\n        /* \"Users.sol\":3335:3395  require(users[msg.sender].registered, \"User not registered\") */\n      0x04\n      dup3\n      add\n        /* \"#utility.yul\":1483:1504   */\n      mstore\n        /* \"#utility.yul\":1540:1542   */\n      0x13\n        /* \"#utility.yul\":1520:1538   */\n      0x24\n      dup3\n      add\n        /* \"#utility.yul\":1513:1543   */\n      mstore\n      shl(0x6a, 0x155cd95c881b9bdd081c9959da5cdd195c9959)\n        /* \"#utility.yul\":1559:1577   */\n      0x44\n      dup3\n      add\n        /* \"#utility.yul\":1552:1601   */\n      mstore\n        /* \"#utility.yul\":1618:1636   */\n      0x64\n      add\n        /* \"Users.sol\":3335:3395  require(users[msg.sender].registered, \"User not registered\") */\n      tag_90\n        /* \"#utility.yul\":1299:1642   */\n      jump\n        /* \"Users.sol\":3335:3395  require(users[msg.sender].registered, \"User not registered\") */\n    tag_155:\n        /* \"Users.sol\":3411:3421  msg.sender */\n      caller\n        /* \"Users.sol\":3405:3410  users */\n      0x00\n        /* \"Users.sol\":3405:3422  users[msg.sender] */\n      swap1\n      dup2\n      mstore\n      0x20\n      dup2\n      dup2\n      mstore\n      0x40\n      dup3\n      keccak256\n        /* \"Users.sol\":3405:3435  users[msg.sender].workRejected */\n      0x07\n      add\n        /* \"Users.sol\":3405:3444  users[msg.sender].workRejected.push(id) */\n      dup1\n      sload\n      0x01\n      dup2\n      add\n      dup3\n      sstore\n      swap1\n      dup4\n      mstore\n      swap2\n      keccak256\n      add\n      sstore\n        /* \"Users.sol\":3281:3451  function addWorkRejected(uint256 id) public {... */\n      jump\t// out\n        /* \"Users.sol\":983:1166  function addPendingWorkRequest(uint256 id) public {... */\n    tag_81:\n        /* \"Users.sol\":1057:1067  msg.sender */\n      caller\n        /* \"Users.sol\":1051:1056  users */\n      0x00\n        /* \"Users.sol\":1051:1068  users[msg.sender] */\n      swap1\n      dup2\n      mstore\n      0x20\n      dup2\n      swap1\n      mstore\n      0x40\n      swap1\n      keccak256\n        /* \"Users.sol\":1051:1079  users[msg.sender].registered */\n      sload\n      0xff\n      and\n        /* \"Users.sol\":1043:1103  require(users[msg.sender].registered, \"User not registered\") */\n      tag_159\n      jumpi\n      mload(0x40)\n      shl(0xe5, 0x461bcd)\n      dup2\n      mstore\n        /* \"#utility.yul\":1501:1503   */\n      0x20\n        /* \"Users.sol\":1043:1103  require(users[msg.sender].registered, \"User not registered\") */\n      0x04\n      dup3\n      add\n        /* \"#utility.yul\":1483:1504   */\n      mstore\n        /* \"#utility.yul\":1540:1542   */\n      0x13\n        /* \"#utility.yul\":1520:1538   */\n      0x24\n      dup3\n      add\n        /* \"#utility.yul\":1513:1543   */\n      mstore\n      shl(0x6a, 0x155cd95c881b9bdd081c9959da5cdd195c9959)\n        /* \"#utility.yul\":1559:1577   */\n      0x44\n      dup3\n      add\n        /* \"#utility.yul\":1552:1601   */\n      mstore\n        /* \"#utility.yul\":1618:1636   */\n      0x64\n      add\n        /* \"Users.sol\":1043:1103  require(users[msg.sender].registered, \"User not registered\") */\n      tag_90\n        /* \"#utility.yul\":1299:1642   */\n      jump\n        /* \"Users.sol\":1043:1103  require(users[msg.sender].registered, \"User not registered\") */\n    tag_159:\n        /* \"Users.sol\":1119:1129  msg.sender */\n      caller\n        /* \"Users.sol\":1113:1118  users */\n      0x00\n        /* \"Users.sol\":1113:1130  users[msg.sender] */\n      swap1\n      dup2\n      mstore\n      0x20\n      dup2\n      dup2\n      mstore\n      0x40\n      dup3\n      keccak256\n        /* \"Users.sol\":1113:1150  users[msg.sender].pendingWorkRequests */\n      0x01\n      swap1\n      dup2\n      add\n        /* \"Users.sol\":1113:1159  users[msg.sender].pendingWorkRequests.push(id) */\n      dup1\n      sload\n      swap2\n      dup3\n      add\n      dup2\n      sstore\n      dup4\n      mstore\n      swap2\n      keccak256\n      add\n      sstore\n        /* \"Users.sol\":983:1166  function addPendingWorkRequest(uint256 id) public {... */\n      jump\t// out\n        /* \"Users.sol\":2335:2527  function getJobInProgress() public view returns (uint256[] memory) {... */\n    tag_83:\n        /* \"Users.sol\":2426:2436  msg.sender */\n      caller\n        /* \"Users.sol\":2420:2425  users */\n      0x00\n        /* \"Users.sol\":2420:2437  users[msg.sender] */\n      swap1\n      dup2\n      mstore\n      0x20\n      dup2\n      swap1\n      mstore\n      0x40\n      swap1\n      keccak256\n        /* \"Users.sol\":2420:2448  users[msg.sender].registered */\n      sload\n        /* \"Users.sol\":2384:2400  uint256[] memory */\n      0x60\n      swap1\n        /* \"Users.sol\":2420:2448  users[msg.sender].registered */\n      0xff\n      and\n        /* \"Users.sol\":2412:2472  require(users[msg.sender].registered, \"User not registered\") */\n      tag_163\n      jumpi\n      mload(0x40)\n      shl(0xe5, 0x461bcd)\n      dup2\n      mstore\n        /* \"#utility.yul\":1501:1503   */\n      0x20\n        /* \"Users.sol\":2412:2472  require(users[msg.sender].registered, \"User not registered\") */\n      0x04\n      dup3\n      add\n        /* \"#utility.yul\":1483:1504   */\n      mstore\n        /* \"#utility.yul\":1540:1542   */\n      0x13\n        /* \"#utility.yul\":1520:1538   */\n      0x24\n      dup3\n      add\n        /* \"#utility.yul\":1513:1543   */\n      mstore\n      shl(0x6a, 0x155cd95c881b9bdd081c9959da5cdd195c9959)\n        /* \"#utility.yul\":1559:1577   */\n      0x44\n      dup3\n      add\n        /* \"#utility.yul\":1552:1601   */\n      mstore\n        /* \"#utility.yul\":1618:1636   */\n      0x64\n      add\n        /* \"Users.sol\":2412:2472  require(users[msg.sender].registered, \"User not registered\") */\n      tag_90\n        /* \"#utility.yul\":1299:1642   */\n      jump\n        /* \"Users.sol\":2412:2472  require(users[msg.sender].registered, \"User not registered\") */\n    tag_163:\n        /* \"Users.sol\":2495:2505  msg.sender */\n      caller\n        /* \"Users.sol\":2489:2494  users */\n      0x00\n        /* \"Users.sol\":2489:2506  users[msg.sender] */\n      swap1\n      dup2\n      mstore\n      0x20\n      dup2\n      dup2\n      mstore\n      0x40\n      swap2\n      dup3\n      swap1\n      keccak256\n        /* \"Users.sol\":2489:2520  users[msg.sender].jobInProgress */\n      0x04\n      add\n        /* \"Users.sol\":2482:2520  return users[msg.sender].jobInProgress */\n      dup1\n      sload\n      dup4\n      mload\n      dup2\n      dup5\n      mul\n      dup2\n      add\n      dup5\n      add\n      swap1\n      swap5\n      mstore\n      dup1\n      dup5\n      mstore\n        /* \"Users.sol\":2489:2520  users[msg.sender].jobInProgress */\n      swap1\n      swap2\n        /* \"Users.sol\":2482:2520  return users[msg.sender].jobInProgress */\n      dup4\n      add\n        /* \"Users.sol\":2489:2520  users[msg.sender].jobInProgress */\n      dup3\n        /* \"Users.sol\":2482:2520  return users[msg.sender].jobInProgress */\n      dup3\n      dup1\n      iszero\n      tag_98\n      jumpi\n      0x20\n      mul\n      dup3\n      add\n      swap2\n      swap1\n      0x00\n      mstore\n      keccak256(0x00, 0x20)\n      swap1\n      dup2\n      sload\n      dup2\n      mstore\n      0x20\n      add\n      swap1\n      0x01\n      add\n      swap1\n      dup1\n      dup4\n      gt\n      tag_99\n      jumpi\n      pop\n      pop\n      pop\n      pop\n      pop\n      swap1\n      pop\n        /* \"Users.sol\":2335:2527  function getJobInProgress() public view returns (uint256[] memory) {... */\n      swap1\n      jump\t// out\n        /* \"Users.sol\":2909:3079  function addJobCompleted(uint256 id) public {... */\n    tag_87:\n        /* \"Users.sol\":2977:2987  msg.sender */\n      caller\n        /* \"Users.sol\":2971:2976  users */\n      0x00\n        /* \"Users.sol\":2971:2988  users[msg.sender] */\n      swap1\n      dup2\n      mstore\n      0x20\n      dup2\n      swap1\n      mstore\n      0x40\n      swap1\n      keccak256\n        /* \"Users.sol\":2971:2999  users[msg.sender].registered */\n      sload\n      0xff\n      and\n        /* \"Users.sol\":2963:3023  require(users[msg.sender].registered, \"User not registered\") */\n      tag_168\n      jumpi\n      mload(0x40)\n      shl(0xe5, 0x461bcd)\n      dup2\n      mstore\n        /* \"#utility.yul\":1501:1503   */\n      0x20\n        /* \"Users.sol\":2963:3023  require(users[msg.sender].registered, \"User not registered\") */\n      0x04\n      dup3\n      add\n        /* \"#utility.yul\":1483:1504   */\n      mstore\n        /* \"#utility.yul\":1540:1542   */\n      0x13\n        /* \"#utility.yul\":1520:1538   */\n      0x24\n      dup3\n      add\n        /* \"#utility.yul\":1513:1543   */\n      mstore\n      shl(0x6a, 0x155cd95c881b9bdd081c9959da5cdd195c9959)\n        /* \"#utility.yul\":1559:1577   */\n      0x44\n      dup3\n      add\n        /* \"#utility.yul\":1552:1601   */\n      mstore\n        /* \"#utility.yul\":1618:1636   */\n      0x64\n      add\n        /* \"Users.sol\":2963:3023  require(users[msg.sender].registered, \"User not registered\") */\n      tag_90\n        /* \"#utility.yul\":1299:1642   */\n      jump\n        /* \"Users.sol\":2963:3023  require(users[msg.sender].registered, \"User not registered\") */\n    tag_168:\n        /* \"Users.sol\":3039:3049  msg.sender */\n      caller\n        /* \"Users.sol\":3033:3038  users */\n      0x00\n        /* \"Users.sol\":3033:3050  users[msg.sender] */\n      swap1\n      dup2\n      mstore\n      0x20\n      dup2\n      dup2\n      mstore\n      0x40\n      dup3\n      keccak256\n        /* \"Users.sol\":3033:3063  users[msg.sender].jobCompleted */\n      0x06\n      add\n        /* \"Users.sol\":3033:3072  users[msg.sender].jobCompleted.push(id) */\n      dup1\n      sload\n      0x01\n      dup2\n      add\n      dup3\n      sstore\n      swap1\n      dup4\n      mstore\n      swap2\n      keccak256\n      add\n      sstore\n        /* \"Users.sol\":2909:3079  function addJobCompleted(uint256 id) public {... */\n      jump\t// out\n        /* \"#utility.yul\":14:283   */\n    tag_30:\n        /* \"#utility.yul\":71:77   */\n      0x00\n        /* \"#utility.yul\":124:126   */\n      0x20\n        /* \"#utility.yul\":112:121   */\n      dup3\n        /* \"#utility.yul\":103:110   */\n      dup5\n        /* \"#utility.yul\":99:122   */\n      sub\n        /* \"#utility.yul\":95:127   */\n      slt\n        /* \"#utility.yul\":92:144   */\n      iszero\n      tag_173\n      jumpi\n        /* \"#utility.yul\":140:141   */\n      0x00\n        /* \"#utility.yul\":137:138   */\n      dup1\n        /* \"#utility.yul\":130:142   */\n      revert\n        /* \"#utility.yul\":92:144   */\n    tag_173:\n        /* \"#utility.yul\":179:188   */\n      dup2\n        /* \"#utility.yul\":166:189   */\n      calldataload\n        /* \"#utility.yul\":229:233   */\n      0xff\n        /* \"#utility.yul\":222:227   */\n      dup2\n        /* \"#utility.yul\":218:234   */\n      and\n        /* \"#utility.yul\":211:216   */\n      dup2\n        /* \"#utility.yul\":208:235   */\n      eq\n        /* \"#utility.yul\":198:253   */\n      tag_174\n      jumpi\n        /* \"#utility.yul\":249:250   */\n      0x00\n        /* \"#utility.yul\":246:247   */\n      dup1\n        /* \"#utility.yul\":239:251   */\n      revert\n        /* \"#utility.yul\":198:253   */\n    tag_174:\n        /* \"#utility.yul\":272:277   */\n      swap4\n        /* \"#utility.yul\":14:283   */\n      swap3\n      pop\n      pop\n      pop\n      jump\t// out\n        /* \"#utility.yul\":477:1109   */\n    tag_39:\n        /* \"#utility.yul\":648:650   */\n      0x20\n        /* \"#utility.yul\":700:721   */\n      dup1\n      dup3\n      mstore\n        /* \"#utility.yul\":770:783   */\n      dup3\n      mload\n        /* \"#utility.yul\":673:691   */\n      dup3\n      dup3\n      add\n        /* \"#utility.yul\":792:814   */\n      dup2\n      swap1\n      mstore\n        /* \"#utility.yul\":619:623   */\n      0x00\n      swap2\n        /* \"#utility.yul\":648:650   */\n      swap1\n        /* \"#utility.yul\":871:886   */\n      dup5\n      dup3\n      add\n      swap1\n        /* \"#utility.yul\":845:847   */\n      0x40\n        /* \"#utility.yul\":830:848   */\n      dup6\n      add\n      swap1\n        /* \"#utility.yul\":619:623   */\n      dup5\n        /* \"#utility.yul\":914:1083   */\n    tag_177:\n        /* \"#utility.yul\":928:934   */\n      dup2\n        /* \"#utility.yul\":925:926   */\n      dup2\n        /* \"#utility.yul\":922:935   */\n      lt\n        /* \"#utility.yul\":914:1083   */\n      iszero\n      tag_179\n      jumpi\n        /* \"#utility.yul\":989:1002   */\n      dup4\n      mload\n        /* \"#utility.yul\":977:1003   */\n      dup4\n      mstore\n        /* \"#utility.yul\":1058:1073   */\n      swap3\n      dup5\n      add\n      swap3\n        /* \"#utility.yul\":1023:1035   */\n      swap2\n      dup5\n      add\n      swap2\n        /* \"#utility.yul\":950:951   */\n      0x01\n        /* \"#utility.yul\":943:952   */\n      add\n        /* \"#utility.yul\":914:1083   */\n      jump(tag_177)\n    tag_179:\n      pop\n        /* \"#utility.yul\":1100:1103   */\n      swap1\n      swap7\n        /* \"#utility.yul\":477:1109   */\n      swap6\n      pop\n      pop\n      pop\n      pop\n      pop\n      pop\n      jump\t// out\n        /* \"#utility.yul\":1114:1294   */\n    tag_53:\n        /* \"#utility.yul\":1173:1179   */\n      0x00\n        /* \"#utility.yul\":1226:1228   */\n      0x20\n        /* \"#utility.yul\":1214:1223   */\n      dup3\n        /* \"#utility.yul\":1205:1212   */\n      dup5\n        /* \"#utility.yul\":1201:1224   */\n      sub\n        /* \"#utility.yul\":1197:1229   */\n      slt\n        /* \"#utility.yul\":1194:1246   */\n      iszero\n      tag_181\n      jumpi\n        /* \"#utility.yul\":1242:1243   */\n      0x00\n        /* \"#utility.yul\":1239:1240   */\n      dup1\n        /* \"#utility.yul\":1232:1244   */\n      revert\n        /* \"#utility.yul\":1194:1246   */\n    tag_181:\n      pop\n        /* \"#utility.yul\":1265:1288   */\n      calldataload\n      swap2\n        /* \"#utility.yul\":1114:1294   */\n      swap1\n      pop\n      jump\t// out\n\n    auxdata: 0xa2646970667358221220740d8059c1e274816a458776d385a09b83762cfa222c6e31686e49fe9208860c64736f6c63430008190033\n}\n",
    "bytecode": {
      "linkReferences": {},
      "object": "6080604052348015600e575f80fd5b50610dd18061001c5f395ff3fe608060405234801561000f575f80fd5b5060043610610149575f3560e01c8063898de5bb116100c7578063e9a510e81161007d578063f6e21b4b11610063578063f6e21b4b14610240578063f9f52bfd14610253578063fed2248e1461025b575f80fd5b8063e9a510e814610225578063f02aba611461022d575f80fd5b8063b3c3ffc9116100ad578063b3c3ffc9146101f7578063bdaf07eb146101ff578063beaca3b114610212575f80fd5b8063898de5bb146101d15780639aaea69a146101e4575f80fd5b806350afb4521161011c5780636e7d695b116101025780636e7d695b146101ae57806375e554d7146101b6578063895f04f2146101c9575f80fd5b806350afb4521461019e57806368fce07b146101a6575f80fd5b806302e913cb1461014d57806305cf8d5d1461016257806337024a6e146101815780633f312adf14610196575b5f80fd5b61016061015b366004610d1a565b61026e565b005b61016a6102ef565b60405160ff90911681526020015b60405180910390f35b61018961035e565b6040516101789190610d41565b610189610412565b6101606104c4565b61018961053e565b6101896105f0565b6101606101c4366004610d84565b6106a2565b610189610718565b6101606101df366004610d84565b6107ca565b6101606101f2366004610d84565b610840565b6101896108b6565b61016061020d366004610d84565b610968565b610160610220366004610d84565b6109de565b610189610a54565b61016061023b366004610d84565b610b06565b61016061024e366004610d84565b610b7c565b610189610bf2565b610160610269366004610d84565b610ca4565b335f9081526020819052604090205460ff166102c75760405162461bcd60e51b8152602060048201526013602482015272155cd95c881b9bdd081c9959da5cdd195c9959606a1b60448201526064015b60405180910390fd5b335f908152602081905260409020805460ff9092166101000261ff0019909216919091179055565b335f9081526020819052604081205460ff166103435760405162461bcd60e51b8152602060048201526013602482015272155cd95c881b9bdd081c9959da5cdd195c9959606a1b60448201526064016102be565b50335f90815260208190526040902054610100900460ff1690565b335f9081526020819052604090205460609060ff166103b55760405162461bcd60e51b8152602060048201526013602482015272155cd95c881b9bdd081c9959da5cdd195c9959606a1b60448201526064016102be565b335f90815260208181526040918290206003018054835181840281018401909452808452909183018282801561040857602002820191905f5260205f20905b8154815260200190600101908083116103f4575b5050505050905090565b335f9081526020819052604090205460609060ff166104695760405162461bcd60e51b8152602060048201526013602482015272155cd95c881b9bdd081c9959da5cdd195c9959606a1b60448201526064016102be565b335f90815260208181526040918290206001018054835181840281018401909452808452909183018282801561040857602002820191905f5260205f20908154815260200190600101908083116103f4575050505050905090565b335f9081526020819052604090205460ff16156105235760405162461bcd60e51b815260206004820152601760248201527f5573657220616c7265616479207265676973746572656400000000000000000060448201526064016102be565b335f908152602081905260409020805460ff19166001179055565b335f9081526020819052604090205460609060ff166105955760405162461bcd60e51b8152602060048201526013602482015272155cd95c881b9bdd081c9959da5cdd195c9959606a1b60448201526064016102be565b335f90815260208181526040918290206007018054835181840281018401909452808452909183018282801561040857602002820191905f5260205f20908154815260200190600101908083116103f4575050505050905090565b335f9081526020819052604090205460609060ff166106475760405162461bcd60e51b8152602060048201526013602482015272155cd95c881b9bdd081c9959da5cdd195c9959606a1b60448201526064016102be565b335f90815260208181526040918290206006018054835181840281018401909452808452909183018282801561040857602002820191905f5260205f20908154815260200190600101908083116103f4575050505050905090565b335f9081526020819052604090205460ff166106f65760405162461bcd60e51b8152602060048201526013602482015272155cd95c881b9bdd081c9959da5cdd195c9959606a1b60448201526064016102be565b335f908152602081815260408220600201805460018101825590835291200155565b335f9081526020819052604090205460609060ff1661076f5760405162461bcd60e51b8152602060048201526013602482015272155cd95c881b9bdd081c9959da5cdd195c9959606a1b60448201526064016102be565b335f90815260208181526040918290206008018054835181840281018401909452808452909183018282801561040857602002820191905f5260205f20908154815260200190600101908083116103f4575050505050905090565b335f9081526020819052604090205460ff1661081e5760405162461bcd60e51b8152602060048201526013602482015272155cd95c881b9bdd081c9959da5cdd195c9959606a1b60448201526064016102be565b335f908152602081815260408220600801805460018101825590835291200155565b335f9081526020819052604090205460ff166108945760405162461bcd60e51b8152602060048201526013602482015272155cd95c881b9bdd081c9959da5cdd195c9959606a1b60448201526064016102be565b335f908152602081815260408220600501805460018101825590835291200155565b335f9081526020819052604090205460609060ff1661090d5760405162461bcd60e51b8152602060048201526013602482015272155cd95c881b9bdd081c9959da5cdd195c9959606a1b60448201526064016102be565b335f90815260208181526040918290206005018054835181840281018401909452808452909183018282801561040857602002820191905f5260205f20908154815260200190600101908083116103f4575050505050905090565b335f9081526020819052604090205460ff166109bc5760405162461bcd60e51b8152602060048201526013602482015272155cd95c881b9bdd081c9959da5cdd195c9959606a1b60448201526064016102be565b335f908152602081815260408220600401805460018101825590835291200155565b335f9081526020819052604090205460ff16610a325760405162461bcd60e51b8152602060048201526013602482015272155cd95c881b9bdd081c9959da5cdd195c9959606a1b60448201526064016102be565b335f908152602081815260408220600301805460018101825590835291200155565b335f9081526020819052604090205460609060ff16610aab5760405162461bcd60e51b8152602060048201526013602482015272155cd95c881b9bdd081c9959da5cdd195c9959606a1b60448201526064016102be565b335f90815260208181526040918290206002018054835181840281018401909452808452909183018282801561040857602002820191905f5260205f20908154815260200190600101908083116103f4575050505050905090565b335f9081526020819052604090205460ff16610b5a5760405162461bcd60e51b8152602060048201526013602482015272155cd95c881b9bdd081c9959da5cdd195c9959606a1b60448201526064016102be565b335f908152602081815260408220600701805460018101825590835291200155565b335f9081526020819052604090205460ff16610bd05760405162461bcd60e51b8152602060048201526013602482015272155cd95c881b9bdd081c9959da5cdd195c9959606a1b60448201526064016102be565b335f908152602081815260408220600190810180549182018155835291200155565b335f9081526020819052604090205460609060ff16610c495760405162461bcd60e51b8152602060048201526013602482015272155cd95c881b9bdd081c9959da5cdd195c9959606a1b60448201526064016102be565b335f90815260208181526040918290206004018054835181840281018401909452808452909183018282801561040857602002820191905f5260205f20908154815260200190600101908083116103f4575050505050905090565b335f9081526020819052604090205460ff16610cf85760405162461bcd60e51b8152602060048201526013602482015272155cd95c881b9bdd081c9959da5cdd195c9959606a1b60448201526064016102be565b335f908152602081815260408220600601805460018101825590835291200155565b5f60208284031215610d2a575f80fd5b813560ff81168114610d3a575f80fd5b9392505050565b602080825282518282018190525f9190848201906040850190845b81811015610d7857835183529284019291840191600101610d5c565b50909695505050505050565b5f60208284031215610d94575f80fd5b503591905056fea2646970667358221220740d8059c1e274816a458776d385a09b83762cfa222c6e31686e49fe9208860c64736f6c63430008190033",
      "opcodes": "PUSH1 0x80 PUSH1 0x40 MSTORE CALLVALUE DUP1 ISZERO PUSH1 0xE JUMPI PUSH0 DUP1 REVERT JUMPDEST POP PUSH2 0xDD1 DUP1 PUSH2 0x1C PUSH0 CODECOPY PUSH0 RETURN INVALID PUSH1 0x80 PUSH1 0x40 MSTORE CALLVALUE DUP1 ISZERO PUSH2 0xF JUMPI PUSH0 DUP1 REVERT JUMPDEST POP PUSH1 0x4 CALLDATASIZE LT PUSH2 0x149 JUMPI PUSH0 CALLDATALOAD PUSH1 0xE0 SHR DUP1 PUSH4 0x898DE5BB GT PUSH2 0xC7 JUMPI DUP1 PUSH4 0xE9A510E8 GT PUSH2 0x7D JUMPI DUP1 PUSH4 0xF6E21B4B GT PUSH2 0x63 JUMPI DUP1 PUSH4 0xF6E21B4B EQ PUSH2 0x240 JUMPI DUP1 PUSH4 0xF9F52BFD EQ PUSH2 0x253 JUMPI DUP1 PUSH4 0xFED2248E EQ PUSH2 0x25B JUMPI PUSH0 DUP1 REVERT JUMPDEST DUP1 PUSH4 0xE9A510E8 EQ PUSH2 0x225 JUMPI DUP1 PUSH4 0xF02ABA61 EQ PUSH2 0x22D JUMPI PUSH0 DUP1 REVERT JUMPDEST DUP1 PUSH4 0xB3C3FFC9 GT PUSH2 0xAD JUMPI DUP1 PUSH4 0xB3C3FFC9 EQ PUSH2 0x1F7 JUMPI DUP1 PUSH4 0xBDAF07EB EQ PUSH2 0x1FF JUMPI DUP1 PUSH4 0xBEACA3B1 EQ PUSH2 0x212 JUMPI PUSH0 DUP1 REVERT JUMPDEST DUP1 PUSH4 0x898DE5BB EQ PUSH2 0x1D1 JUMPI DUP1 PUSH4 0x9AAEA69A EQ PUSH2 0x1E4 JUMPI PUSH0 DUP1 REVERT JUMPDEST DUP1 PUSH4 0x50AFB452 GT PUSH2 0x11C JUMPI DUP1 PUSH4 0x6E7D695B GT PUSH2 0x102 JUMPI DUP1 PUSH4 0x6E7D695B EQ PUSH2 0x1AE JUMPI DUP1 PUSH4 0x75E554D7 EQ PUSH2 0x1B6 JUMPI DUP1 PUSH4 0x895F04F2 EQ PUSH2 0x1C9 JUMPI PUSH0 DUP1 REVERT JUMPDEST DUP1 PUSH4 0x50AFB452 EQ PUSH2 0x19E JUMPI DUP1 PUSH4 0x68FCE07B EQ PUSH2 0x1A6 JUMPI PUSH0 DUP1 REVERT JUMPDEST DUP1 PUSH4 0x2E913CB EQ PUSH2 0x14D JUMPI DUP1 PUSH4 0x5CF8D5D EQ PUSH2 0x162 JUMPI DUP1 PUSH4 0x37024A6E EQ PUSH2 0x181 JUMPI DUP1 PUSH4 0x3F312ADF EQ PUSH2 0x196 JUMPI JUMPDEST PUSH0 DUP1 REVERT JUMPDEST PUSH2 0x160 PUSH2 0x15B CALLDATASIZE PUSH1 0x4 PUSH2 0xD1A JUMP JUMPDEST PUSH2 0x26E JUMP JUMPDEST STOP JUMPDEST PUSH2 0x16A PUSH2 0x2EF JUMP JUMPDEST PUSH1 0x40 MLOAD PUSH1 0xFF SWAP1 SWAP2 AND DUP2 MSTORE PUSH1 0x20 ADD JUMPDEST PUSH1 0x40 MLOAD DUP1 SWAP2 SUB SWAP1 RETURN JUMPDEST PUSH2 0x189 PUSH2 0x35E JUMP JUMPDEST PUSH1 0x40 MLOAD PUSH2 0x178 SWAP2 SWAP1 PUSH2 0xD41 JUMP JUMPDEST PUSH2 0x189 PUSH2 0x412 JUMP JUMPDEST PUSH2 0x160 PUSH2 0x4C4 JUMP JUMPDEST PUSH2 0x189 PUSH2 0x53E JUMP JUMPDEST PUSH2 0x189 PUSH2 0x5F0 JUMP JUMPDEST PUSH2 0x160 PUSH2 0x1C4 CALLDATASIZE PUSH1 0x4 PUSH2 0xD84 JUMP JUMPDEST PUSH2 0x6A2 JUMP JUMPDEST PUSH2 0x189 PUSH2 0x718 JUMP JUMPDEST PUSH2 0x160 PUSH2 0x1DF CALLDATASIZE PUSH1 0x4 PUSH2 0xD84 JUMP JUMPDEST PUSH2 0x7CA JUMP JUMPDEST PUSH2 0x160 PUSH2 0x1F2 CALLDATASIZE PUSH1 0x4 PUSH2 0xD84 JUMP JUMPDEST PUSH2 0x840 JUMP JUMPDEST PUSH2 0x189 PUSH2 0x8B6 JUMP JUMPDEST PUSH2 0x160 PUSH2 0x20D CALLDATASIZE PUSH1 0x4 PUSH2 0xD84 JUMP JUMPDEST PUSH2 0x968 JUMP JUMPDEST PUSH2 0x160 PUSH2 0x220 CALLDATASIZE PUSH1 0x4 PUSH2 0xD84 JUMP JUMPDEST PUSH2 0x9DE JUMP JUMPDEST PUSH2 0x189 PUSH2 0xA54 JUMP JUMPDEST PUSH2 0x160 PUSH2 0x23B CALLDATASIZE PUSH1 0x4 PUSH2 0xD84 JUMP JUMPDEST PUSH2 0xB06 JUMP JUMPDEST PUSH2 0x160 PUSH2 0x24E CALLDATASIZE PUSH1 0x4 PUSH2 0xD84 JUMP JUMPDEST PUSH2 0xB7C JUMP JUMPDEST PUSH2 0x189 PUSH2 0xBF2 JUMP JUMPDEST PUSH2 0x160 PUSH2 0x269 CALLDATASIZE PUSH1 0x4 PUSH2 0xD84 JUMP JUMPDEST PUSH2 0xCA4 JUMP JUMPDEST CALLER PUSH0 SWAP1 DUP2 MSTORE PUSH1 0x20 DUP2 SWAP1 MSTORE PUSH1 0x40 SWAP1 KECCAK256 SLOAD PUSH1 0xFF AND PUSH2 0x2C7 JUMPI PUSH1 0x40 MLOAD PUSH3 0x461BCD PUSH1 0xE5 SHL DUP2 MSTORE PUSH1 0x20 PUSH1 0x4 DUP3 ADD MSTORE PUSH1 0x13 PUSH1 0x24 DUP3 ADD MSTORE PUSH19 0x155CD95C881B9BDD081C9959DA5CDD195C9959 PUSH1 0x6A SHL PUSH1 0x44 DUP3 ADD MSTORE PUSH1 0x64 ADD JUMPDEST PUSH1 0x40 MLOAD DUP1 SWAP2 SUB SWAP1 REVERT JUMPDEST CALLER PUSH0 SWAP1 DUP2 MSTORE PUSH1 0x20 DUP2 SWAP1 MSTORE PUSH1 0x40 SWAP1 KECCAK256 DUP1 SLOAD PUSH1 0xFF SWAP1 SWAP3 AND PUSH2 0x100 MUL PUSH2 0xFF00 NOT SWAP1 SWAP3 AND SWAP2 SWAP1 SWAP2 OR SWAP1 SSTORE JUMP JUMPDEST CALLER PUSH0 SWAP1 DUP2 MSTORE PUSH1 0x20 DUP2 SWAP1 MSTORE PUSH1 0x40 DUP2 KECCAK256 SLOAD PUSH1 0xFF AND PUSH2 0x343 JUMPI PUSH1 0x40 MLOAD PUSH3 0x461BCD PUSH1 0xE5 SHL DUP2 MSTORE PUSH1 0x20 PUSH1 0x4 DUP3 ADD MSTORE PUSH1 0x13 PUSH1 0x24 DUP3 ADD MSTORE PUSH19 0x155CD95C881B9BDD081C9959DA5CDD195C9959 PUSH1 0x6A SHL PUSH1 0x44 DUP3 ADD MSTORE PUSH1 0x64 ADD PUSH2 0x2BE JUMP JUMPDEST POP CALLER PUSH0 SWAP1 DUP2 MSTORE PUSH1 0x20 DUP2 SWAP1 MSTORE PUSH1 0x40 SWAP1 KECCAK256 SLOAD PUSH2 0x100 SWAP1 DIV PUSH1 0xFF AND SWAP1 JUMP JUMPDEST CALLER PUSH0 SWAP1 DUP2 MSTORE PUSH1 0x20 DUP2 SWAP1 MSTORE PUSH1 0x40 SWAP1 KECCAK256 SLOAD PUSH1 0x60 SWAP1 PUSH1 0xFF AND PUSH2 0x3B5 JUMPI PUSH1 0x40 MLOAD PUSH3 0x461BCD PUSH1 0xE5 SHL DUP2 MSTORE PUSH1 0x20 PUSH1 0x4 DUP3 ADD MSTORE PUSH1 0x13 PUSH1 0x24 DUP3 ADD MSTORE PUSH19 0x155CD95C881B9BDD081C9959DA5CDD195C9959 PUSH1 0x6A SHL PUSH1 0x44 DUP3 ADD MSTORE PUSH1 0x64 ADD PUSH2 0x2BE JUMP JUMPDEST CALLER PUSH0 SWAP1 DUP2 MSTORE PUSH1 0x20 DUP2 DUP2 MSTORE PUSH1 0x40 SWAP2 DUP3 SWAP1 KECCAK256 PUSH1 0x3 ADD DUP1 SLOAD DUP4 MLOAD DUP2 DUP5 MUL DUP2 ADD DUP5 ADD SWAP1 SWAP5 MSTORE DUP1 DUP5 MSTORE SWAP1 SWAP2 DUP4 ADD DUP3 DUP3 DUP1 ISZERO PUSH2 0x408 JUMPI PUSH1 0x20 MUL DUP3 ADD SWAP2 SWAP1 PUSH0 MSTORE PUSH1 0x20 PUSH0 KECCAK256 SWAP1 JUMPDEST DUP2 SLOAD DUP2 MSTORE PUSH1 0x20 ADD SWAP1 PUSH1 0x1 ADD SWAP1 DUP1 DUP4 GT PUSH2 0x3F4 JUMPI JUMPDEST POP POP POP POP POP SWAP1 POP SWAP1 JUMP JUMPDEST CALLER PUSH0 SWAP1 DUP2 MSTORE PUSH1 0x20 DUP2 SWAP1 MSTORE PUSH1 0x40 SWAP1 KECCAK256 SLOAD PUSH1 0x60 SWAP1 PUSH1 0xFF AND PUSH2 0x469 JUMPI PUSH1 0x40 MLOAD PUSH3 0x461BCD PUSH1 0xE5 SHL DUP2 MSTORE PUSH1 0x20 PUSH1 0x4 DUP3 ADD MSTORE PUSH1 0x13 PUSH1 0x24 DUP3 ADD MSTORE PUSH19 0x155CD95C881B9BDD081C9959DA5CDD195C9959 PUSH1 0x6A SHL PUSH1 0x44 DUP3 ADD MSTORE PUSH1 0x64 ADD PUSH2 0x2BE JUMP JUMPDEST CALLER PUSH0 SWAP1 DUP2 MSTORE PUSH1 0x20 DUP2 DUP2 MSTORE PUSH1 0x40 SWAP2 DUP3 SWAP1 KECCAK256 PUSH1 0x1 ADD DUP1 SLOAD DUP4 MLOAD DUP2 DUP5 MUL DUP2 ADD DUP5 ADD SWAP1 SWAP5 MSTORE DUP1 DUP5 MSTORE SWAP1 SWAP2 DUP4 ADD DUP3 DUP3 DUP1 ISZERO PUSH2 0x408 JUMPI PUSH1 0x20 MUL DUP3 ADD SWAP2 SWAP1 PUSH0 MSTORE PUSH1 0x20 PUSH0 KECCAK256 SWAP1 DUP2 SLOAD DUP2 MSTORE PUSH1 0x20 ADD SWAP1 PUSH1 0x1 ADD SWAP1 DUP1 DUP4 GT PUSH2 0x3F4 JUMPI POP POP POP POP POP SWAP1 POP SWAP1 JUMP JUMPDEST CALLER PUSH0 SWAP1 DUP2 MSTORE PUSH1 0x20 DUP2 SWAP1 MSTORE PUSH1 0x40 SWAP1 KECCAK256 SLOAD PUSH1 0xFF AND ISZERO PUSH2 0x523 JUMPI PUSH1 0x40 MLOAD PUSH3 0x461BCD PUSH1 0xE5 SHL DUP2 MSTORE PUSH1 0x20 PUSH1 0x4 DUP3 ADD MSTORE PUSH1 0x17 PUSH1 0x24 DUP3 ADD MSTORE PUSH32 0x5573657220616C72656164792072656769737465726564000000000000000000 PUSH1 0x44 DUP3 ADD MSTORE PUSH1 0x64 ADD PUSH2 0x2BE JUMP JUMPDEST CALLER PUSH0 SWAP1 DUP2 MSTORE PUSH1 0x20 DUP2 SWAP1 MSTORE PUSH1 0x40 SWAP1 KECCAK256 DUP1 SLOAD PUSH1 0xFF NOT AND PUSH1 0x1 OR SWAP1 SSTORE JUMP JUMPDEST CALLER PUSH0 SWAP1 DUP2 MSTORE PUSH1 0x20 DUP2 SWAP1 MSTORE PUSH1 0x40 SWAP1 KECCAK256 SLOAD PUSH1 0x60 SWAP1 PUSH1 0xFF AND PUSH2 0x595 JUMPI PUSH1 0x40 MLOAD PUSH3 0x461BCD PUSH1 0xE5 SHL DUP2 MSTORE PUSH1 0x20 PUSH1 0x4 DUP3 ADD MSTORE PUSH1 0x13 PUSH1 0x24 DUP3 ADD MSTORE PUSH19 0x155CD95C881B9BDD081C9959DA5CDD195C9959 PUSH1 0x6A SHL PUSH1 0x44 DUP3 ADD MSTORE PUSH1 0x64 ADD PUSH2 0x2BE JUMP JUMPDEST CALLER PUSH0 SWAP1 DUP2 MSTORE PUSH1 0x20 DUP2 DUP2 MSTORE PUSH1 0x40 SWAP2 DUP3 SWAP1 KECCAK256 PUSH1 0x7 ADD DUP1 SLOAD DUP4 MLOAD DUP2 DUP5 MUL DUP2 ADD DUP5 ADD SWAP1 SWAP5 MSTORE DUP1 DUP5 MSTORE SWAP1 SWAP2 DUP4 ADD DUP3 DUP3 DUP1 ISZERO PUSH2 0x408 JUMPI PUSH1 0x20 MUL DUP3 ADD SWAP2 SWAP1 PUSH0 MSTORE PUSH1 0x20 PUSH0 KECCAK256 SWAP1 DUP2 SLOAD DUP2 MSTORE PUSH1 0x20 ADD SWAP1 PUSH1 0x1 ADD SWAP1 DUP1 DUP4 GT PUSH2 0x3F4 JUMPI POP POP POP POP POP SWAP1 POP SWAP1 JUMP JUMPDEST CALLER PUSH0 SWAP1 DUP2 MSTORE PUSH1 0x20 DUP2 SWAP1 MSTORE PUSH1 0x40 SWAP1 KECCAK256 SLOAD PUSH1 0x60 SWAP1 PUSH1 0xFF AND PUSH2 0x647 JUMPI PUSH1 0x40 MLOAD PUSH3 0x461BCD PUSH1 0xE5 SHL DUP2 MSTORE PUSH1 0x20 PUSH1 0x4 DUP3 ADD MSTORE PUSH1 0x13 PUSH1 0x24 DUP3 ADD MSTORE PUSH19 0x155CD95C881B9BDD081C9959DA5CDD195C9959 PUSH1 0x6A SHL PUSH1 0x44 DUP3 ADD MSTORE PUSH1 0x64 ADD PUSH2 0x2BE JUMP JUMPDEST CALLER PUSH0 SWAP1 DUP2 MSTORE PUSH1 0x20 DUP2 DUP2 MSTORE PUSH1 0x40 SWAP2 DUP3 SWAP1 KECCAK256 PUSH1 0x6 ADD DUP1 SLOAD DUP4 MLOAD DUP2 DUP5 MUL DUP2 ADD DUP5 ADD SWAP1 SWAP5 MSTORE DUP1 DUP5 MSTORE SWAP1 SWAP2 DUP4 ADD DUP3 DUP3 DUP1 ISZERO PUSH2 0x408 JUMPI PUSH1 0x20 MUL DUP3 ADD SWAP2 SWAP1 PUSH0 MSTORE PUSH1 0x20 PUSH0 KECCAK256 SWAP1 DUP2 SLOAD DUP2 MSTORE PUSH1 0x20 ADD SWAP1 PUSH1 0x1 ADD SWAP1 DUP1 DUP4 GT PUSH2 0x3F4 JUMPI POP POP POP POP POP SWAP1 POP SWAP1 JUMP JUMPDEST CALLER PUSH0 SWAP1 DUP2 MSTORE PUSH1 0x20 DUP2 SWAP1 MSTORE PUSH1 0x40 SWAP1 KECCAK256 SLOAD PUSH1 0xFF AND PUSH2 0x6F6 JUMPI PUSH1 0x40 MLOAD PUSH3 0x461BCD PUSH1 0xE5 SHL DUP2 MSTORE PUSH1 0x20 PUSH1 0x4 DUP3 ADD MSTORE PUSH1 0x13 PUSH1 0x24 DUP3 ADD MSTORE PUSH19 0x155CD95C881B9BDD081C9959DA5CDD195C9959 PUSH1 0x6A SHL PUSH1 0x44 DUP3 ADD MSTORE PUSH1 0x64 ADD PUSH2 0x2BE JUMP JUMPDEST CALLER PUSH0 SWAP1 DUP2 MSTORE PUSH1 0x20 DUP2 DUP2 MSTORE PUSH1 0x40 DUP3 KECCAK256 PUSH1 0x2 ADD DUP1 SLOAD PUSH1 0x1 DUP2 ADD DUP3 SSTORE SWAP1 DUP4 MSTORE SWAP2 KECCAK256 ADD SSTORE JUMP JUMPDEST CALLER PUSH0 SWAP1 DUP2 MSTORE PUSH1 0x20 DUP2 SWAP1 MSTORE PUSH1 0x40 SWAP1 KECCAK256 SLOAD PUSH1 0x60 SWAP1 PUSH1 0xFF AND PUSH2 0x76F JUMPI PUSH1 0x40 MLOAD PUSH3 0x461BCD PUSH1 0xE5 SHL DUP2 MSTORE PUSH1 0x20 PUSH1 0x4 DUP3 ADD MSTORE PUSH1 0x13 PUSH1 0x24 DUP3 ADD MSTORE PUSH19 0x155CD95C881B9BDD081C9959DA5CDD195C9959 PUSH1 0x6A SHL PUSH1 0x44 DUP3 ADD MSTORE PUSH1 0x64 ADD PUSH2 0x2BE JUMP JUMPDEST CALLER PUSH0 SWAP1 DUP2 MSTORE PUSH1 0x20 DUP2 DUP2 MSTORE PUSH1 0x40 SWAP2 DUP3 SWAP1 KECCAK256 PUSH1 0x8 ADD DUP1 SLOAD DUP4 MLOAD DUP2 DUP5 MUL DUP2 ADD DUP5 ADD SWAP1 SWAP5 MSTORE DUP1 DUP5 MSTORE SWAP1 SWAP2 DUP4 ADD DUP3 DUP3 DUP1 ISZERO PUSH2 0x408 JUMPI PUSH1 0x20 MUL DUP3 ADD SWAP2 SWAP1 PUSH0 MSTORE PUSH1 0x20 PUSH0 KECCAK256 SWAP1 DUP2 SLOAD DUP2 MSTORE PUSH1 0x20 ADD SWAP1 PUSH1 0x1 ADD SWAP1 DUP1 DUP4 GT PUSH2 0x3F4 JUMPI POP POP POP POP POP SWAP1 POP SWAP1 JUMP JUMPDEST CALLER PUSH0 SWAP1 DUP2 MSTORE PUSH1 0x20 DUP2 SWAP1 MSTORE PUSH1 0x40 SWAP1 KECCAK256 SLOAD PUSH1 0xFF AND PUSH2 0x81E JUMPI PUSH1 0x40 MLOAD PUSH3 0x461BCD PUSH1 0xE5 SHL DUP2 MSTORE PUSH1 0x20 PUSH1 0x4 DUP3 ADD MSTORE PUSH1 0x13 PUSH1 0x24 DUP3 ADD MSTORE PUSH19 0x155CD95C881B9BDD081C9959DA5CDD195C9959 PUSH1 0x6A SHL PUSH1 0x44 DUP3 ADD MSTORE PUSH1 0x64 ADD PUSH2 0x2BE JUMP JUMPDEST CALLER PUSH0 SWAP1 DUP2 MSTORE PUSH1 0x20 DUP2 DUP2 MSTORE PUSH1 0x40 DUP3 KECCAK256 PUSH1 0x8 ADD DUP1 SLOAD PUSH1 0x1 DUP2 ADD DUP3 SSTORE SWAP1 DUP4 MSTORE SWAP2 KECCAK256 ADD SSTORE JUMP JUMPDEST CALLER PUSH0 SWAP1 DUP2 MSTORE PUSH1 0x20 DUP2 SWAP1 MSTORE PUSH1 0x40 SWAP1 KECCAK256 SLOAD PUSH1 0xFF AND PUSH2 0x894 JUMPI PUSH1 0x40 MLOAD PUSH3 0x461BCD PUSH1 0xE5 SHL DUP2 MSTORE PUSH1 0x20 PUSH1 0x4 DUP3 ADD MSTORE PUSH1 0x13 PUSH1 0x24 DUP3 ADD MSTORE PUSH19 0x155CD95C881B9BDD081C9959DA5CDD195C9959 PUSH1 0x6A SHL PUSH1 0x44 DUP3 ADD MSTORE PUSH1 0x64 ADD PUSH2 0x2BE JUMP JUMPDEST CALLER PUSH0 SWAP1 DUP2 MSTORE PUSH1 0x20 DUP2 DUP2 MSTORE PUSH1 0x40 DUP3 KECCAK256 PUSH1 0x5 ADD DUP1 SLOAD PUSH1 0x1 DUP2 ADD DUP3 SSTORE SWAP1 DUP4 MSTORE SWAP2 KECCAK256 ADD SSTORE JUMP JUMPDEST CALLER PUSH0 SWAP1 DUP2 MSTORE PUSH1 0x20 DUP2 SWAP1 MSTORE PUSH1 0x40 SWAP1 KECCAK256 SLOAD PUSH1 0x60 SWAP1 PUSH1 0xFF AND PUSH2 0x90D JUMPI PUSH1 0x40 MLOAD PUSH3 0x461BCD PUSH1 0xE5 SHL DUP2 MSTORE PUSH1 0x20 PUSH1 0x4 DUP3 ADD MSTORE PUSH1 0x13 PUSH1 0x24 DUP3 ADD MSTORE PUSH19 0x155CD95C881B9BDD081C9959DA5CDD195C9959 PUSH1 0x6A SHL PUSH1 0x44 DUP3 ADD MSTORE PUSH1 0x64 ADD PUSH2 0x2BE JUMP JUMPDEST CALLER PUSH0 SWAP1 DUP2 MSTORE PUSH1 0x20 DUP2 DUP2 MSTORE PUSH1 0x40 SWAP2 DUP3 SWAP1 KECCAK256 PUSH1 0x5 ADD DUP1 SLOAD DUP4 MLOAD DUP2 DUP5 MUL DUP2 ADD DUP5 ADD SWAP1 SWAP5 MSTORE DUP1 DUP5 MSTORE SWAP1 SWAP2 DUP4 ADD DUP3 DUP3 DUP1 ISZERO PUSH2 0x408 JUMPI PUSH1 0x20 MUL DUP3 ADD SWAP2 SWAP1 PUSH0 MSTORE PUSH1 0x20 PUSH0 KECCAK256 SWAP1 DUP2 SLOAD DUP2 MSTORE PUSH1 0x20 ADD SWAP1 PUSH1 0x1 ADD SWAP1 DUP1 DUP4 GT PUSH2 0x3F4 JUMPI POP POP POP POP POP SWAP1 POP SWAP1 JUMP JUMPDEST CALLER PUSH0 SWAP1 DUP2 MSTORE PUSH1 0x20 DUP2 SWAP1 MSTORE PUSH1 0x40 SWAP1 KECCAK256 SLOAD PUSH1 0xFF AND PUSH2 0x9BC JUMPI PUSH1 0x40 MLOAD PUSH3 0x461BCD PUSH1 0xE5 SHL DUP2 MSTORE PUSH1 0x20 PUSH1 0x4 DUP3 ADD MSTORE PUSH1 0x13 PUSH1 0x24 DUP3 ADD MSTORE PUSH19 0x155CD95C881B9BDD081C9959DA5CDD195C9959 PUSH1 0x6A SHL PUSH1 0x44 DUP3 ADD MSTORE PUSH1 0x64 ADD PUSH2 0x2BE JUMP JUMPDEST CALLER PUSH0 SWAP1 DUP2 MSTORE PUSH1 0x20 DUP2 DUP2 MSTORE PUSH1 0x40 DUP3 KECCAK256 PUSH1 0x4 ADD DUP1 SLOAD PUSH1 0x1 DUP2 ADD DUP3 SSTORE SWAP1 DUP4 MSTORE SWAP2 KECCAK256 ADD SSTORE JUMP JUMPDEST CALLER PUSH0 SWAP1 DUP2 MSTORE PUSH1 0x20 DUP2 SWAP1 MSTORE PUSH1 0x40 SWAP1 KECCAK256 SLOAD PUSH1 0xFF AND PUSH2 0xA32 JUMPI PUSH1 0x40 MLOAD PUSH3 0x461BCD PUSH1 0xE5 SHL DUP2 MSTORE PUSH1 0x20 PUSH1 0x4 DUP3 ADD MSTORE PUSH1 0x13 PUSH1 0x24 DUP3 ADD MSTORE PUSH19 0x155CD95C881B9BDD081C9959DA5CDD195C9959 PUSH1 0x6A SHL PUSH1 0x44 DUP3 ADD MSTORE PUSH1 0x64 ADD PUSH2 0x2BE JUMP JUMPDEST CALLER PUSH0 SWAP1 DUP2 MSTORE PUSH1 0x20 DUP2 DUP2 MSTORE PUSH1 0x40 DUP3 KECCAK256 PUSH1 0x3 ADD DUP1 SLOAD PUSH1 0x1 DUP2 ADD DUP3 SSTORE SWAP1 DUP4 MSTORE SWAP2 KECCAK256 ADD SSTORE JUMP JUMPDEST CALLER PUSH0 SWAP1 DUP2 MSTORE PUSH1 0x20 DUP2 SWAP1 MSTORE PUSH1 0x40 SWAP1 KECCAK256 SLOAD PUSH1 0x60 SWAP1 PUSH1 0xFF AND PUSH2 0xAAB JUMPI PUSH1 0x40 MLOAD PUSH3 0x461BCD PUSH1 0xE5 SHL DUP2 MSTORE PUSH1 0x20 PUSH1 0x4 DUP3 ADD MSTORE PUSH1 0x13 PUSH1 0x24 DUP3 ADD MSTORE PUSH19 0x155CD95C881B9BDD081C9959DA5CDD195C9959 PUSH1 0x6A SHL PUSH1 0x44 DUP3 ADD MSTORE PUSH1 0x64 ADD PUSH2 0x2BE JUMP JUMPDEST CALLER PUSH0 SWAP1 DUP2 MSTORE PUSH1 0x20 DUP2 DUP2 MSTORE PUSH1 0x40 SWAP2 DUP3 SWAP1 KECCAK256 PUSH1 0x2 ADD DUP1 SLOAD DUP4 MLOAD DUP2 DUP5 MUL DUP2 ADD DUP5 ADD SWAP1 SWAP5 MSTORE DUP1 DUP5 MSTORE SWAP1 SWAP2 DUP4 ADD DUP3 DUP3 DUP1 ISZERO PUSH2 0x408 JUMPI PUSH1 0x20 MUL DUP3 ADD SWAP2 SWAP1 PUSH0 MSTORE PUSH1 0x20 PUSH0 KECCAK256 SWAP1 DUP2 SLOAD DUP2 MSTORE PUSH1 0x20 ADD SWAP1 PUSH1 0x1 ADD SWAP1 DUP1 DUP4 GT PUSH2 0x3F4 JUMPI POP POP POP POP POP SWAP1 POP SWAP1 JUMP JUMPDEST CALLER PUSH0 SWAP1 DUP2 MSTORE PUSH1 0x20 DUP2 SWAP1 MSTORE PUSH1 0x40 SWAP1 KECCAK256 SLOAD PUSH1 0xFF AND PUSH2 0xB5A JUMPI PUSH1 0x40 MLOAD PUSH3 0x461BCD PUSH1 0xE5 SHL DUP2 MSTORE PUSH1 0x20 PUSH1 0x4 DUP3 ADD MSTORE PUSH1 0x13 PUSH1 0x24 DUP3 ADD MSTORE PUSH19 0x155CD95C881B9BDD081C9959DA5CDD195C9959 PUSH1 0x6A SHL PUSH1 0x44 DUP3 ADD MSTORE PUSH1 0x64 ADD PUSH2 0x2BE JUMP JUMPDEST CALLER PUSH0 SWAP1 DUP2 MSTORE PUSH1 0x20 DUP2 DUP2 MSTORE PUSH1 0x40 DUP3 KECCAK256 PUSH1 0x7 ADD DUP1 SLOAD PUSH1 0x1 DUP2 ADD DUP3 SSTORE SWAP1 DUP4 MSTORE SWAP2 KECCAK256 ADD SSTORE JUMP JUMPDEST CALLER PUSH0 SWAP1 DUP2 MSTORE PUSH1 0x20 DUP2 SWAP1 MSTORE PUSH1 0x40 SWAP1 KECCAK256 SLOAD PUSH1 0xFF AND PUSH2 0xBD0 JUMPI PUSH1 0x40 MLOAD PUSH3 0x461BCD PUSH1 0xE5 SHL DUP2 MSTORE PUSH1 0x20 PUSH1 0x4 DUP3 ADD MSTORE PUSH1 0x13 PUSH1 0x24 DUP3 ADD MSTORE PUSH19 0x155CD95C881B9BDD081C9959DA5CDD195C9959 PUSH1 0x6A SHL PUSH1 0x44 DUP3 ADD MSTORE PUSH1 0x64 ADD PUSH2 0x2BE JUMP JUMPDEST CALLER PUSH0 SWAP1 DUP2 MSTORE PUSH1 0x20 DUP2 DUP2 MSTORE PUSH1 0x40 DUP3 KECCAK256 PUSH1 0x1 SWAP1 DUP2 ADD DUP1 SLOAD SWAP2 DUP3 ADD DUP2 SSTORE DUP4 MSTORE SWAP2 KECCAK256 ADD SSTORE JUMP JUMPDEST CALLER PUSH0 SWAP1 DUP2 MSTORE PUSH1 0x20 DUP2 SWAP1 MSTORE PUSH1 0x40 SWAP1 KECCAK256 SLOAD PUSH1 0x60 SWAP1 PUSH1 0xFF AND PUSH2 0xC49 JUMPI PUSH1 0x40 MLOAD PUSH3 0x461BCD PUSH1 0xE5 SHL DUP2 MSTORE PUSH1 0x20 PUSH1 0x4 DUP3 ADD MSTORE PUSH1 0x13 PUSH1 0x24 DUP3 ADD MSTORE PUSH19 0x155CD95C881B9BDD081C9959DA5CDD195C9959 PUSH1 0x6A SHL PUSH1 0x44 DUP3 ADD MSTORE PUSH1 0x64 ADD PUSH2 0x2BE JUMP JUMPDEST CALLER PUSH0 SWAP1 DUP2 MSTORE PUSH1 0x20 DUP2 DUP2 MSTORE PUSH1 0x40 SWAP2 DUP3 SWAP1 KECCAK256 PUSH1 0x4 ADD DUP1 SLOAD DUP4 MLOAD DUP2 DUP5 MUL DUP2 ADD DUP5 ADD SWAP1 SWAP5 MSTORE DUP1 DUP5 MSTORE SWAP1 SWAP2 DUP4 ADD DUP3 DUP3 DUP1 ISZERO PUSH2 0x408 JUMPI PUSH1 0x20 MUL DUP3 ADD SWAP2 SWAP1 PUSH0 MSTORE PUSH1 0x20 PUSH0 KECCAK256 SWAP1 DUP2 SLOAD DUP2 MSTORE PUSH1 0x20 ADD SWAP1 PUSH1 0x1 ADD SWAP1 DUP1 DUP4 GT PUSH2 0x3F4 JUMPI POP POP POP POP POP SWAP1 POP SWAP1 JUMP JUMPDEST CALLER PUSH0 SWAP1 DUP2 MSTORE PUSH1 0x20 DUP2 SWAP1 MSTORE PUSH1 0x40 SWAP1 KECCAK256 SLOAD PUSH1 0xFF AND PUSH2 0xCF8 JUMPI PUSH1 0x40 MLOAD PUSH3 0x461BCD PUSH1 0xE5 SHL DUP2 MSTORE PUSH1 0x20 PUSH1 0x4 DUP3 ADD MSTORE PUSH1 0x13 PUSH1 0x24 DUP3 ADD MSTORE PUSH19 0x155CD95C881B9BDD081C9959DA5CDD195C9959 PUSH1 0x6A SHL PUSH1 0x44 DUP3 ADD MSTORE PUSH1 0x64 ADD PUSH2 0x2BE JUMP JUMPDEST CALLER PUSH0 SWAP1 DUP2 MSTORE PUSH1 0x20 DUP2 DUP2 MSTORE PUSH1 0x40 DUP3 KECCAK256 PUSH1 0x6 ADD DUP1 SLOAD PUSH1 0x1 DUP2 ADD DUP3 SSTORE SWAP1 DUP4 MSTORE SWAP2 KECCAK256 ADD SSTORE JUMP JUMPDEST PUSH0 PUSH1 0x20 DUP3 DUP5 SUB SLT ISZERO PUSH2 0xD2A JUMPI PUSH0 DUP1 REVERT JUMPDEST DUP2 CALLDATALOAD PUSH1 0xFF DUP2 AND DUP2 EQ PUSH2 0xD3A JUMPI PUSH0 DUP1 REVERT JUMPDEST SWAP4 SWAP3 POP POP POP JUMP JUMPDEST PUSH1 0x20 DUP1 DUP3 MSTORE DUP3 MLOAD DUP3 DUP3 ADD DUP2 SWAP1 MSTORE PUSH0 SWAP2 SWAP1 DUP5 DUP3 ADD SWAP1 PUSH1 0x40 DUP6 ADD SWAP1 DUP5 JUMPDEST DUP2 DUP2 LT ISZERO PUSH2 0xD78 JUMPI DUP4 MLOAD DUP4 MSTORE SWAP3 DUP5 ADD SWAP3 SWAP2 DUP5 ADD SWAP2 PUSH1 0x1 ADD PUSH2 0xD5C JUMP JUMPDEST POP SWAP1 SWAP7 SWAP6 POP POP POP POP POP POP JUMP JUMPDEST PUSH0 PUSH1 0x20 DUP3 DUP5 SUB SLT ISZERO PUSH2 0xD94 JUMPI PUSH0 DUP1 REVERT JUMPDEST POP CALLDATALOAD SWAP2 SWAP1 POP JUMP INVALID LOG2 PUSH5 0x6970667358 0x22 SLT KECCAK256 PUSH21 0xD8059C1E274816A458776D385A09B83762CFA222C PUSH15 0x31686E49FE9208860C64736F6C6343 STOP ADDMOD NOT STOP CALLER "
    },
    "gasEstimates": {
      "creation": {
        "codeDepositCost": "707400",
        "executionCost": "739",
        "totalCost": "708139"
      },
      "external": {
        "addJobCompleted(uint256)": "48945",
        "addJobInProgress(uint256)": "48924",
        "addJobRejected(uint256)": "48903",
        "addPendingJobRequest(uint256)": "48924",
        "addPendingWorkRequest(uint256)": "48904",
        "addWorkCompleted(uint256)": "48925",
        "addWorkInProgress(uint256)": "48946",
        "addWorkRejected(uint256)": "48924",
        "createNewUser()": "26679",
        "getJobCompleted()": "infinite",
        "getJobInProgress()": "infinite",
        "getJobRejected()": "infinite",
        "getPendingJobRequests()": "infinite",
        "getPendingWorkRequests()": "infinite",
        "getRating()": "4632",
        "getWorkCompleted()": "infinite",
        "getWorkInProgress()": "infinite",
        "getWorkRejected()": "infinite",
        "setRating(uint8)": "26796"
      }
    },
    "methodIdentifiers": {
      "addJobCompleted(uint256)": "fed2248e",
      "addJobInProgress(uint256)": "bdaf07eb",
      "addJobRejected(uint256)": "898de5bb",
      "addPendingJobRequest(uint256)": "75e554d7",
      "addPendingWorkRequest(uint256)": "f6e21b4b",
      "addWorkCompleted(uint256)": "9aaea69a",
      "addWorkInProgress(uint256)": "beaca3b1",
      "addWorkRejected(uint256)": "f02aba61",
      "createNewUser()": "50afb452",
      "getJobCompleted()": "6e7d695b",
      "getJobInProgress()": "f9f52bfd",
      "getJobRejected()": "895f04f2",
      "getPendingJobRequests()": "e9a510e8",
      "getPendingWorkRequests()": "3f312adf",
      "getRating()": "05cf8d5d",
      "getWorkCompleted()": "b3c3ffc9",
      "getWorkInProgress()": "37024a6e",
      "getWorkRejected()": "68fce07b",
      "setRating(uint8)": "02e913cb"
    }
  },
  "storageLayout": {
    "storage": [
      {
        "astId": 35,
        "contract": "Users.sol:Users",
        "label": "users",
        "offset": 0,
        "slot": "0",
        "type": "t_mapping(t_address,t_struct(User)30_storage)"
      }
    ],
    "types": {
      "t_address": {
        "encoding": "inplace",
        "label": "address",
        "numberOfBytes": "20"
      },
      "t_array(t_uint256)dyn_storage": {
        "base": "t_uint256",
        "encoding": "dynamic_array",
        "label": "uint256[]",
        "numberOfBytes": "32"
      },
      "t_bool": {
        "encoding": "inplace",
        "label": "bool",
        "numberOfBytes": "1"
      },
      "t_mapping(t_address,t_struct(User)30_storage)": {
        "encoding": "mapping",
        "key": "t_address",
        "label": "mapping(address => struct Users.User)",
        "numberOfBytes": "32",
        "value": "t_struct(User)30_storage"
      },
      "t_struct(User)30_storage": {
        "encoding": "inplace",
        "label": "struct Users.User",
        "members": [
          {
            "astId": 3,
            "contract": "Users.sol:Users",
            "label": "registered",
            "offset": 0,
            "slot": "0",
            "type": "t_bool"
          },
          {
            "astId": 5,
            "contract": "Users.sol:Users",
            "label": "rating",
            "offset": 1,
            "slot": "0",
            "type": "t_uint8"
          },
          {
            "astId": 8,
            "contract": "Users.sol:Users",
            "label": "pendingWorkRequests",
            "offset": 0,
            "slot": "1",
            "type": "t_array(t_uint256)dyn_storage"
          },
          {
            "astId": 11,
            "contract": "Users.sol:Users",
            "label": "pendingJobRequests",
            "offset": 0,
            "slot": "2",
            "type": "t_array(t_uint256)dyn_storage"
          },
          {
            "astId": 14,
            "contract": "Users.sol:Users",
            "label": "workInProgress",
            "offset": 0,
            "slot": "3",
            "type": "t_array(t_uint256)dyn_storage"
          },
          {
            "astId": 17,
            "contract": "Users.sol:Users",
            "label": "jobInProgress",
            "offset": 0,
            "slot": "4",
            "type": "t_array(t_uint256)dyn_storage"
          },
          {
            "astId": 20,
            "contract": "Users.sol:Users",
            "label": "workCompleted",
            "offset": 0,
            "slot": "5",
            "type": "t_array(t_uint256)dyn_storage"
          },
          {
            "astId": 23,
            "contract": "Users.sol:Users",
            "label": "jobCompleted",
            "offset": 0,
            "slot": "6",
            "type": "t_array(t_uint256)dyn_storage"
          },
          {
            "astId": 26,
            "contract": "Users.sol:Users",
            "label": "workRejected",
            "offset": 0,
            "slot": "7",
            "type": "t_array(t_uint256)dyn_storage"
          },
          {
            "astId": 29,
            "contract": "Users.sol:Users",
            "label": "jobRejected",
            "offset": 0,
            "slot": "8",
            "type": "t_array(t_uint256)dyn_storage"
          }
        ],
        "numberOfBytes": "288"
      },
      "t_uint256": {
        "encoding": "inplace",
        "label": "uint256",
        "numberOfBytes": "32"
      },
      "t_uint8": {
        "encoding": "inplace",
        "label": "uint8",
        "numberOfBytes": "1"
      }
    }
  },
  "userdoc": {
    "kind": "user",
    "methods": {},
    "version": 1
  }
}