{
  "abi": [
    {
      "inputs": [],
      "name": "createNewUser",
      "outputs": [],
      "stateMutability": "nonpayable",
      "type": "function"
    },
    {
      "inputs": [
        {
          "internalType": "address",
          "name": "user",
          "type": "address"
        },
        {
          "internalType": "uint256",
          "name": "jobId",
          "type": "uint256"
        }
      ],
      "name": "getDeployedContract",
      "outputs": [
        {
          "internalType": "address",
          "name": "",
          "type": "address"
        }
      ],
      "stateMutability": "view",
      "type": "function"
    },
    {
      "inputs": [
        {
          "internalType": "uint256",
          "name": "jobId",
          "type": "uint256"
        },
        {
          "internalType": "address",
          "name": "contractAddress",
          "type": "address"
        }
      ],
      "name": "saveDeployedContract",
      "outputs": [],
      "stateMutability": "nonpayable",
      "type": "function"
    },
    {
      "inputs": [
        {
          "internalType": "address",
          "name": "",
          "type": "address"
        }
      ],
      "name": "users",
      "outputs": [
        {
          "internalType": "bool",
          "name": "registered",
          "type": "bool"
        }
      ],
      "stateMutability": "view",
      "type": "function"
    }
  ],
  "devdoc": {
    "kind": "dev",
    "methods": {},
    "version": 1
  },
  "evm": {
    "assembly": "    /* \"Users.sol\":69:876  contract Users {... */\n  mstore(0x40, 0x80)\n  callvalue\n  dup1\n  iszero\n  tag_1\n  jumpi\n  0x00\n  dup1\n  revert\ntag_1:\n  pop\n  dataSize(sub_0)\n  dup1\n  dataOffset(sub_0)\n  0x00\n  codecopy\n  0x00\n  return\nstop\n\nsub_0: assembly {\n        /* \"Users.sol\":69:876  contract Users {... */\n      mstore(0x40, 0x80)\n      callvalue\n      dup1\n      iszero\n      tag_1\n      jumpi\n      0x00\n      dup1\n      revert\n    tag_1:\n      pop\n      jumpi(tag_2, lt(calldatasize, 0x04))\n      shr(0xe0, calldataload(0x00))\n      dup1\n      0x0dc8422c\n      eq\n      tag_3\n      jumpi\n      dup1\n      0x50afb452\n      eq\n      tag_4\n      jumpi\n      dup1\n      0xa87430ba\n      eq\n      tag_5\n      jumpi\n      dup1\n      0xb2135627\n      eq\n      tag_6\n      jumpi\n    tag_2:\n      0x00\n      dup1\n      revert\n        /* \"Users.sol\":663:874  function getDeployedContract(address user, uint jobId) external view returns (address) {... */\n    tag_3:\n      tag_7\n      tag_8\n      calldatasize\n      0x04\n      tag_9\n      jump\t// in\n    tag_8:\n      tag_10\n      jump\t// in\n    tag_7:\n      mload(0x40)\n      sub(shl(0xa0, 0x01), 0x01)\n        /* \"#utility.yul\":638:693   */\n      swap1\n      swap2\n      and\n        /* \"#utility.yul\":620:694   */\n      dup2\n      mstore\n        /* \"#utility.yul\":608:610   */\n      0x20\n        /* \"#utility.yul\":593:611   */\n      add\n        /* \"Users.sol\":663:874  function getDeployedContract(address user, uint jobId) external view returns (address) {... */\n    tag_11:\n      mload(0x40)\n      dup1\n      swap2\n      sub\n      swap1\n      return\n        /* \"Users.sol\":267:428  function createNewUser() external {... */\n    tag_4:\n      tag_13\n      tag_14\n      jump\t// in\n    tag_13:\n      stop\n        /* \"Users.sol\":223:260  mapping(address => User) public users */\n    tag_5:\n      tag_15\n      tag_16\n      calldatasize\n      0x04\n      tag_17\n      jump\t// in\n    tag_16:\n      0x00\n      0x20\n      dup2\n      swap1\n      mstore\n      swap1\n      dup2\n      mstore\n      0x40\n      swap1\n      keccak256\n      sload\n      0xff\n      and\n      dup2\n      jump\n    tag_15:\n      mload(0x40)\n        /* \"#utility.yul\":1061:1075   */\n      swap1\n      iszero\n        /* \"#utility.yul\":1054:1076   */\n      iszero\n        /* \"#utility.yul\":1036:1077   */\n      dup2\n      mstore\n        /* \"#utility.yul\":1024:1026   */\n      0x20\n        /* \"#utility.yul\":1009:1027   */\n      add\n        /* \"Users.sol\":223:260  mapping(address => User) public users */\n      tag_11\n        /* \"#utility.yul\":896:1083   */\n      jump\n        /* \"Users.sol\":434:657  function saveDeployedContract(uint jobId, address contractAddress) external {... */\n    tag_6:\n      tag_13\n      tag_22\n      calldatasize\n      0x04\n      tag_23\n      jump\t// in\n    tag_22:\n      tag_24\n      jump\t// in\n        /* \"Users.sol\":663:874  function getDeployedContract(address user, uint jobId) external view returns (address) {... */\n    tag_10:\n      sub(shl(0xa0, 0x01), 0x01)\n        /* \"Users.sol\":768:779  users[user] */\n      dup3\n      and\n        /* \"Users.sol\":741:748  address */\n      0x00\n        /* \"Users.sol\":768:779  users[user] */\n      swap1\n      dup2\n      mstore\n      0x20\n      dup2\n      swap1\n      mstore\n      0x40\n      dup2\n      keccak256\n        /* \"Users.sol\":768:790  users[user].registered */\n      sload\n      0xff\n      and\n        /* \"Users.sol\":760:814  require(users[user].registered, \"User not registered\") */\n      tag_26\n      jumpi\n      mload(0x40)\n      shl(0xe5, 0x461bcd)\n      dup2\n      mstore\n        /* \"#utility.yul\":1549:1551   */\n      0x20\n        /* \"Users.sol\":760:814  require(users[user].registered, \"User not registered\") */\n      0x04\n      dup3\n      add\n        /* \"#utility.yul\":1531:1552   */\n      mstore\n        /* \"#utility.yul\":1588:1590   */\n      0x13\n        /* \"#utility.yul\":1568:1586   */\n      0x24\n      dup3\n      add\n        /* \"#utility.yul\":1561:1591   */\n      mstore\n        /* \"#utility.yul\":1627:1648   */\n      0x55736572206e6f74207265676973746572656400000000000000000000000000\n        /* \"#utility.yul\":1607:1625   */\n      0x44\n      dup3\n      add\n        /* \"#utility.yul\":1600:1649   */\n      mstore\n        /* \"#utility.yul\":1666:1684   */\n      0x64\n      add\n        /* \"Users.sol\":760:814  require(users[user].registered, \"User not registered\") */\n    tag_27:\n      mload(0x40)\n      dup1\n      swap2\n      sub\n      swap1\n      revert\n    tag_26:\n      pop\n      sub(shl(0xa0, 0x01), 0x01)\n        /* \"Users.sol\":831:842  users[user] */\n      swap2\n      dup3\n      and\n        /* \"Users.sol\":831:836  users */\n      0x00\n        /* \"Users.sol\":831:842  users[user] */\n      swap1\n      dup2\n      mstore\n      0x20\n      dup2\n      dup2\n      mstore\n      0x40\n      dup1\n      dup4\n      keccak256\n        /* \"Users.sol\":831:867  users[user].deployedContracts[jobId] */\n      swap4\n      dup4\n      mstore\n        /* \"Users.sol\":831:860  users[user].deployedContracts */\n      0x01\n      swap1\n      swap4\n      add\n        /* \"Users.sol\":831:867  users[user].deployedContracts[jobId] */\n      swap1\n      mstore\n      keccak256\n      sload\n      and\n      swap1\n        /* \"Users.sol\":663:874  function getDeployedContract(address user, uint jobId) external view returns (address) {... */\n      jump\t// out\n        /* \"Users.sol\":267:428  function createNewUser() external {... */\n    tag_14:\n        /* \"Users.sol\":326:336  msg.sender */\n      caller\n        /* \"Users.sol\":320:325  users */\n      0x00\n        /* \"Users.sol\":320:337  users[msg.sender] */\n      swap1\n      dup2\n      mstore\n      0x20\n      dup2\n      swap1\n      mstore\n      0x40\n      swap1\n      keccak256\n        /* \"Users.sol\":320:348  users[msg.sender].registered */\n      sload\n      0xff\n      and\n        /* \"Users.sol\":319:348  !users[msg.sender].registered */\n      iszero\n        /* \"Users.sol\":311:376  require(!users[msg.sender].registered, \"User already registered\") */\n      tag_30\n      jumpi\n      mload(0x40)\n      shl(0xe5, 0x461bcd)\n      dup2\n      mstore\n        /* \"#utility.yul\":1897:1899   */\n      0x20\n        /* \"Users.sol\":311:376  require(!users[msg.sender].registered, \"User already registered\") */\n      0x04\n      dup3\n      add\n        /* \"#utility.yul\":1879:1900   */\n      mstore\n        /* \"#utility.yul\":1936:1938   */\n      0x17\n        /* \"#utility.yul\":1916:1934   */\n      0x24\n      dup3\n      add\n        /* \"#utility.yul\":1909:1939   */\n      mstore\n        /* \"#utility.yul\":1975:2000   */\n      0x5573657220616c72656164792072656769737465726564000000000000000000\n        /* \"#utility.yul\":1955:1973   */\n      0x44\n      dup3\n      add\n        /* \"#utility.yul\":1948:2001   */\n      mstore\n        /* \"#utility.yul\":2018:2036   */\n      0x64\n      add\n        /* \"Users.sol\":311:376  require(!users[msg.sender].registered, \"User already registered\") */\n      tag_27\n        /* \"#utility.yul\":1695:2042   */\n      jump\n        /* \"Users.sol\":311:376  require(!users[msg.sender].registered, \"User already registered\") */\n    tag_30:\n        /* \"Users.sol\":392:402  msg.sender */\n      caller\n        /* \"Users.sol\":386:391  users */\n      0x00\n        /* \"Users.sol\":386:403  users[msg.sender] */\n      swap1\n      dup2\n      mstore\n      0x20\n      dup2\n      swap1\n      mstore\n      0x40\n      swap1\n      keccak256\n        /* \"Users.sol\":386:421  users[msg.sender].registered = true */\n      dup1\n      sload\n      not(0xff)\n      and\n        /* \"Users.sol\":417:421  true */\n      0x01\n        /* \"Users.sol\":386:421  users[msg.sender].registered = true */\n      or\n      swap1\n      sstore\n        /* \"Users.sol\":267:428  function createNewUser() external {... */\n      jump\t// out\n        /* \"Users.sol\":434:657  function saveDeployedContract(uint jobId, address contractAddress) external {... */\n    tag_24:\n        /* \"Users.sol\":534:544  msg.sender */\n      caller\n        /* \"Users.sol\":528:533  users */\n      0x00\n        /* \"Users.sol\":528:545  users[msg.sender] */\n      swap1\n      dup2\n      mstore\n      0x20\n      dup2\n      swap1\n      mstore\n      0x40\n      swap1\n      keccak256\n        /* \"Users.sol\":528:556  users[msg.sender].registered */\n      sload\n      0xff\n      and\n        /* \"Users.sol\":520:580  require(users[msg.sender].registered, \"User not registered\") */\n      tag_34\n      jumpi\n      mload(0x40)\n      shl(0xe5, 0x461bcd)\n      dup2\n      mstore\n        /* \"#utility.yul\":1549:1551   */\n      0x20\n        /* \"Users.sol\":520:580  require(users[msg.sender].registered, \"User not registered\") */\n      0x04\n      dup3\n      add\n        /* \"#utility.yul\":1531:1552   */\n      mstore\n        /* \"#utility.yul\":1588:1590   */\n      0x13\n        /* \"#utility.yul\":1568:1586   */\n      0x24\n      dup3\n      add\n        /* \"#utility.yul\":1561:1591   */\n      mstore\n        /* \"#utility.yul\":1627:1648   */\n      0x55736572206e6f74207265676973746572656400000000000000000000000000\n        /* \"#utility.yul\":1607:1625   */\n      0x44\n      dup3\n      add\n        /* \"#utility.yul\":1600:1649   */\n      mstore\n        /* \"#utility.yul\":1666:1684   */\n      0x64\n      add\n        /* \"Users.sol\":520:580  require(users[msg.sender].registered, \"User not registered\") */\n      tag_27\n        /* \"#utility.yul\":1347:1690   */\n      jump\n        /* \"Users.sol\":520:580  require(users[msg.sender].registered, \"User not registered\") */\n    tag_34:\n        /* \"Users.sol\":596:606  msg.sender */\n      caller\n        /* \"Users.sol\":590:595  users */\n      0x00\n        /* \"Users.sol\":590:607  users[msg.sender] */\n      swap1\n      dup2\n      mstore\n      0x20\n      dup2\n      dup2\n      mstore\n      0x40\n      dup1\n      dup4\n      keccak256\n        /* \"Users.sol\":590:632  users[msg.sender].deployedContracts[jobId] */\n      swap5\n      dup4\n      mstore\n        /* \"Users.sol\":590:625  users[msg.sender].deployedContracts */\n      0x01\n      swap1\n      swap5\n      add\n        /* \"Users.sol\":590:632  users[msg.sender].deployedContracts[jobId] */\n      swap1\n      mstore\n      swap2\n      swap1\n      swap2\n      keccak256\n        /* \"Users.sol\":590:650  users[msg.sender].deployedContracts[jobId] = contractAddress */\n      dup1\n      sload\n      0xffffffffffffffffffffffff0000000000000000000000000000000000000000\n      and\n      sub(shl(0xa0, 0x01), 0x01)\n      swap1\n      swap3\n      and\n      swap2\n      swap1\n      swap2\n      or\n      swap1\n      sstore\n        /* \"Users.sol\":434:657  function saveDeployedContract(uint jobId, address contractAddress) external {... */\n      jump\t// out\n        /* \"#utility.yul\":14:210   */\n    tag_36:\n        /* \"#utility.yul\":82:102   */\n      dup1\n      calldataload\n      sub(shl(0xa0, 0x01), 0x01)\n        /* \"#utility.yul\":131:185   */\n      dup2\n      and\n        /* \"#utility.yul\":121:186   */\n      dup2\n      eq\n        /* \"#utility.yul\":111:204   */\n      tag_39\n      jumpi\n        /* \"#utility.yul\":200:201   */\n      0x00\n        /* \"#utility.yul\":197:198   */\n      dup1\n        /* \"#utility.yul\":190:202   */\n      revert\n        /* \"#utility.yul\":111:204   */\n    tag_39:\n        /* \"#utility.yul\":14:210   */\n      swap2\n      swap1\n      pop\n      jump\t// out\n        /* \"#utility.yul\":215:469   */\n    tag_9:\n        /* \"#utility.yul\":283:289   */\n      0x00\n        /* \"#utility.yul\":291:297   */\n      dup1\n        /* \"#utility.yul\":344:346   */\n      0x40\n        /* \"#utility.yul\":332:341   */\n      dup4\n        /* \"#utility.yul\":323:330   */\n      dup6\n        /* \"#utility.yul\":319:342   */\n      sub\n        /* \"#utility.yul\":315:347   */\n      slt\n        /* \"#utility.yul\":312:364   */\n      iszero\n      tag_41\n      jumpi\n        /* \"#utility.yul\":360:361   */\n      0x00\n        /* \"#utility.yul\":357:358   */\n      dup1\n        /* \"#utility.yul\":350:362   */\n      revert\n        /* \"#utility.yul\":312:364   */\n    tag_41:\n        /* \"#utility.yul\":383:412   */\n      tag_42\n        /* \"#utility.yul\":402:411   */\n      dup4\n        /* \"#utility.yul\":383:412   */\n      tag_36\n      jump\t// in\n    tag_42:\n        /* \"#utility.yul\":373:412   */\n      swap5\n        /* \"#utility.yul\":459:461   */\n      0x20\n        /* \"#utility.yul\":444:462   */\n      swap4\n      swap1\n      swap4\n      add\n        /* \"#utility.yul\":431:463   */\n      calldataload\n      swap4\n      pop\n      pop\n      pop\n        /* \"#utility.yul\":215:469   */\n      jump\t// out\n        /* \"#utility.yul\":705:891   */\n    tag_17:\n        /* \"#utility.yul\":764:770   */\n      0x00\n        /* \"#utility.yul\":817:819   */\n      0x20\n        /* \"#utility.yul\":805:814   */\n      dup3\n        /* \"#utility.yul\":796:803   */\n      dup5\n        /* \"#utility.yul\":792:815   */\n      sub\n        /* \"#utility.yul\":788:820   */\n      slt\n        /* \"#utility.yul\":785:837   */\n      iszero\n      tag_45\n      jumpi\n        /* \"#utility.yul\":833:834   */\n      0x00\n        /* \"#utility.yul\":830:831   */\n      dup1\n        /* \"#utility.yul\":823:835   */\n      revert\n        /* \"#utility.yul\":785:837   */\n    tag_45:\n        /* \"#utility.yul\":856:885   */\n      tag_46\n        /* \"#utility.yul\":875:884   */\n      dup3\n        /* \"#utility.yul\":856:885   */\n      tag_36\n      jump\t// in\n    tag_46:\n        /* \"#utility.yul\":846:885   */\n      swap4\n        /* \"#utility.yul\":705:891   */\n      swap3\n      pop\n      pop\n      pop\n      jump\t// out\n        /* \"#utility.yul\":1088:1342   */\n    tag_23:\n        /* \"#utility.yul\":1156:1162   */\n      0x00\n        /* \"#utility.yul\":1164:1170   */\n      dup1\n        /* \"#utility.yul\":1217:1219   */\n      0x40\n        /* \"#utility.yul\":1205:1214   */\n      dup4\n        /* \"#utility.yul\":1196:1203   */\n      dup6\n        /* \"#utility.yul\":1192:1215   */\n      sub\n        /* \"#utility.yul\":1188:1220   */\n      slt\n        /* \"#utility.yul\":1185:1237   */\n      iszero\n      tag_49\n      jumpi\n        /* \"#utility.yul\":1233:1234   */\n      0x00\n        /* \"#utility.yul\":1230:1231   */\n      dup1\n        /* \"#utility.yul\":1223:1235   */\n      revert\n        /* \"#utility.yul\":1185:1237   */\n    tag_49:\n        /* \"#utility.yul\":1269:1278   */\n      dup3\n        /* \"#utility.yul\":1256:1279   */\n      calldataload\n        /* \"#utility.yul\":1246:1279   */\n      swap2\n      pop\n        /* \"#utility.yul\":1298:1336   */\n      tag_50\n        /* \"#utility.yul\":1332:1334   */\n      0x20\n        /* \"#utility.yul\":1321:1330   */\n      dup5\n        /* \"#utility.yul\":1317:1335   */\n      add\n        /* \"#utility.yul\":1298:1336   */\n      tag_36\n      jump\t// in\n    tag_50:\n        /* \"#utility.yul\":1288:1336   */\n      swap1\n      pop\n        /* \"#utility.yul\":1088:1342   */\n      swap3\n      pop\n      swap3\n      swap1\n      pop\n      jump\t// out\n\n    auxdata: 0xa2646970667358221220235176622d581b8445c0e8071ee89b630689cfd2ea06856e49a07e2afce7751e64736f6c63430008190033\n}\n",
    "bytecode": {
      "linkReferences": {},
      "object": "6080604052348015600e575f80fd5b506103528061001c5f395ff3fe608060405234801561000f575f80fd5b506004361061004a575f3560e01c80630dc8422c1461004e57806350afb4521461007e578063a87430ba14610088578063b2135627146100ba575b5f80fd5b61006161005c3660046102aa565b6100cd565b6040516001600160a01b0390911681526020015b60405180910390f35b610086610163565b005b6100aa6100963660046102d2565b5f6020819052908152604090205460ff1681565b6040519015158152602001610075565b6100866100c83660046102f2565b6101dd565b6001600160a01b0382165f9081526020819052604081205460ff166101395760405162461bcd60e51b815260206004820152601360248201527f55736572206e6f7420726567697374657265640000000000000000000000000060448201526064015b60405180910390fd5b506001600160a01b039182165f908152602081815260408083209383526001909301905220541690565b335f9081526020819052604090205460ff16156101c25760405162461bcd60e51b815260206004820152601760248201527f5573657220616c726561647920726567697374657265640000000000000000006044820152606401610130565b335f908152602081905260409020805460ff19166001179055565b335f9081526020819052604090205460ff1661023b5760405162461bcd60e51b815260206004820152601360248201527f55736572206e6f742072656769737465726564000000000000000000000000006044820152606401610130565b335f90815260208181526040808320948352600190940190529190912080547fffffffffffffffffffffffff0000000000000000000000000000000000000000166001600160a01b03909216919091179055565b80356001600160a01b03811681146102a5575f80fd5b919050565b5f80604083850312156102bb575f80fd5b6102c48361028f565b946020939093013593505050565b5f602082840312156102e2575f80fd5b6102eb8261028f565b9392505050565b5f8060408385031215610303575f80fd5b823591506103136020840161028f565b9050925092905056fea2646970667358221220235176622d581b8445c0e8071ee89b630689cfd2ea06856e49a07e2afce7751e64736f6c63430008190033",
      "opcodes": "PUSH1 0x80 PUSH1 0x40 MSTORE CALLVALUE DUP1 ISZERO PUSH1 0xE JUMPI PUSH0 DUP1 REVERT JUMPDEST POP PUSH2 0x352 DUP1 PUSH2 0x1C PUSH0 CODECOPY PUSH0 RETURN INVALID PUSH1 0x80 PUSH1 0x40 MSTORE CALLVALUE DUP1 ISZERO PUSH2 0xF JUMPI PUSH0 DUP1 REVERT JUMPDEST POP PUSH1 0x4 CALLDATASIZE LT PUSH2 0x4A JUMPI PUSH0 CALLDATALOAD PUSH1 0xE0 SHR DUP1 PUSH4 0xDC8422C EQ PUSH2 0x4E JUMPI DUP1 PUSH4 0x50AFB452 EQ PUSH2 0x7E JUMPI DUP1 PUSH4 0xA87430BA EQ PUSH2 0x88 JUMPI DUP1 PUSH4 0xB2135627 EQ PUSH2 0xBA JUMPI JUMPDEST PUSH0 DUP1 REVERT JUMPDEST PUSH2 0x61 PUSH2 0x5C CALLDATASIZE PUSH1 0x4 PUSH2 0x2AA JUMP JUMPDEST PUSH2 0xCD JUMP JUMPDEST PUSH1 0x40 MLOAD PUSH1 0x1 PUSH1 0x1 PUSH1 0xA0 SHL SUB SWAP1 SWAP2 AND DUP2 MSTORE PUSH1 0x20 ADD JUMPDEST PUSH1 0x40 MLOAD DUP1 SWAP2 SUB SWAP1 RETURN JUMPDEST PUSH2 0x86 PUSH2 0x163 JUMP JUMPDEST STOP JUMPDEST PUSH2 0xAA PUSH2 0x96 CALLDATASIZE PUSH1 0x4 PUSH2 0x2D2 JUMP JUMPDEST PUSH0 PUSH1 0x20 DUP2 SWAP1 MSTORE SWAP1 DUP2 MSTORE PUSH1 0x40 SWAP1 KECCAK256 SLOAD PUSH1 0xFF AND DUP2 JUMP JUMPDEST PUSH1 0x40 MLOAD SWAP1 ISZERO ISZERO DUP2 MSTORE PUSH1 0x20 ADD PUSH2 0x75 JUMP JUMPDEST PUSH2 0x86 PUSH2 0xC8 CALLDATASIZE PUSH1 0x4 PUSH2 0x2F2 JUMP JUMPDEST PUSH2 0x1DD JUMP JUMPDEST PUSH1 0x1 PUSH1 0x1 PUSH1 0xA0 SHL SUB DUP3 AND PUSH0 SWAP1 DUP2 MSTORE PUSH1 0x20 DUP2 SWAP1 MSTORE PUSH1 0x40 DUP2 KECCAK256 SLOAD PUSH1 0xFF AND PUSH2 0x139 JUMPI PUSH1 0x40 MLOAD PUSH3 0x461BCD PUSH1 0xE5 SHL DUP2 MSTORE PUSH1 0x20 PUSH1 0x4 DUP3 ADD MSTORE PUSH1 0x13 PUSH1 0x24 DUP3 ADD MSTORE PUSH32 0x55736572206E6F74207265676973746572656400000000000000000000000000 PUSH1 0x44 DUP3 ADD MSTORE PUSH1 0x64 ADD JUMPDEST PUSH1 0x40 MLOAD DUP1 SWAP2 SUB SWAP1 REVERT JUMPDEST POP PUSH1 0x1 PUSH1 0x1 PUSH1 0xA0 SHL SUB SWAP2 DUP3 AND PUSH0 SWAP1 DUP2 MSTORE PUSH1 0x20 DUP2 DUP2 MSTORE PUSH1 0x40 DUP1 DUP4 KECCAK256 SWAP4 DUP4 MSTORE PUSH1 0x1 SWAP1 SWAP4 ADD SWAP1 MSTORE KECCAK256 SLOAD AND SWAP1 JUMP JUMPDEST CALLER PUSH0 SWAP1 DUP2 MSTORE PUSH1 0x20 DUP2 SWAP1 MSTORE PUSH1 0x40 SWAP1 KECCAK256 SLOAD PUSH1 0xFF AND ISZERO PUSH2 0x1C2 JUMPI PUSH1 0x40 MLOAD PUSH3 0x461BCD PUSH1 0xE5 SHL DUP2 MSTORE PUSH1 0x20 PUSH1 0x4 DUP3 ADD MSTORE PUSH1 0x17 PUSH1 0x24 DUP3 ADD MSTORE PUSH32 0x5573657220616C72656164792072656769737465726564000000000000000000 PUSH1 0x44 DUP3 ADD MSTORE PUSH1 0x64 ADD PUSH2 0x130 JUMP JUMPDEST CALLER PUSH0 SWAP1 DUP2 MSTORE PUSH1 0x20 DUP2 SWAP1 MSTORE PUSH1 0x40 SWAP1 KECCAK256 DUP1 SLOAD PUSH1 0xFF NOT AND PUSH1 0x1 OR SWAP1 SSTORE JUMP JUMPDEST CALLER PUSH0 SWAP1 DUP2 MSTORE PUSH1 0x20 DUP2 SWAP1 MSTORE PUSH1 0x40 SWAP1 KECCAK256 SLOAD PUSH1 0xFF AND PUSH2 0x23B JUMPI PUSH1 0x40 MLOAD PUSH3 0x461BCD PUSH1 0xE5 SHL DUP2 MSTORE PUSH1 0x20 PUSH1 0x4 DUP3 ADD MSTORE PUSH1 0x13 PUSH1 0x24 DUP3 ADD MSTORE PUSH32 0x55736572206E6F74207265676973746572656400000000000000000000000000 PUSH1 0x44 DUP3 ADD MSTORE PUSH1 0x64 ADD PUSH2 0x130 JUMP JUMPDEST CALLER PUSH0 SWAP1 DUP2 MSTORE PUSH1 0x20 DUP2 DUP2 MSTORE PUSH1 0x40 DUP1 DUP4 KECCAK256 SWAP5 DUP4 MSTORE PUSH1 0x1 SWAP1 SWAP5 ADD SWAP1 MSTORE SWAP2 SWAP1 SWAP2 KECCAK256 DUP1 SLOAD PUSH32 0xFFFFFFFFFFFFFFFFFFFFFFFF0000000000000000000000000000000000000000 AND PUSH1 0x1 PUSH1 0x1 PUSH1 0xA0 SHL SUB SWAP1 SWAP3 AND SWAP2 SWAP1 SWAP2 OR SWAP1 SSTORE JUMP JUMPDEST DUP1 CALLDATALOAD PUSH1 0x1 PUSH1 0x1 PUSH1 0xA0 SHL SUB DUP2 AND DUP2 EQ PUSH2 0x2A5 JUMPI PUSH0 DUP1 REVERT JUMPDEST SWAP2 SWAP1 POP JUMP JUMPDEST PUSH0 DUP1 PUSH1 0x40 DUP4 DUP6 SUB SLT ISZERO PUSH2 0x2BB JUMPI PUSH0 DUP1 REVERT JUMPDEST PUSH2 0x2C4 DUP4 PUSH2 0x28F JUMP JUMPDEST SWAP5 PUSH1 0x20 SWAP4 SWAP1 SWAP4 ADD CALLDATALOAD SWAP4 POP POP POP JUMP JUMPDEST PUSH0 PUSH1 0x20 DUP3 DUP5 SUB SLT ISZERO PUSH2 0x2E2 JUMPI PUSH0 DUP1 REVERT JUMPDEST PUSH2 0x2EB DUP3 PUSH2 0x28F JUMP JUMPDEST SWAP4 SWAP3 POP POP POP JUMP JUMPDEST PUSH0 DUP1 PUSH1 0x40 DUP4 DUP6 SUB SLT ISZERO PUSH2 0x303 JUMPI PUSH0 DUP1 REVERT JUMPDEST DUP3 CALLDATALOAD SWAP2 POP PUSH2 0x313 PUSH1 0x20 DUP5 ADD PUSH2 0x28F JUMP JUMPDEST SWAP1 POP SWAP3 POP SWAP3 SWAP1 POP JUMP INVALID LOG2 PUSH5 0x6970667358 0x22 SLT KECCAK256 0x23 MLOAD PUSH23 0x622D581B8445C0E8071EE89B630689CFD2EA06856E49A0 PUSH31 0x2AFCE7751E64736F6C63430008190033000000000000000000000000000000 "
    },
    "gasEstimates": {
      "creation": {
        "codeDepositCost": "170000",
        "executionCost": "212",
        "totalCost": "170212"
      },
      "external": {
        "createNewUser()": "26633",
        "getDeployedContract(address,uint256)": "4853",
        "saveDeployedContract(uint256,address)": "26965",
        "users(address)": "2553"
      }
    },
    "methodIdentifiers": {
      "createNewUser()": "50afb452",
      "getDeployedContract(address,uint256)": "0dc8422c",
      "saveDeployedContract(uint256,address)": "b2135627",
      "users(address)": "a87430ba"
    }
  },
  "storageLayout": {
    "storage": [
      {
        "astId": 13,
        "contract": "Users.sol:Users",
        "label": "users",
        "offset": 0,
        "slot": "0",
        "type": "t_mapping(t_address,t_struct(User)8_storage)"
      }
    ],
    "types": {
      "t_address": {
        "encoding": "inplace",
        "label": "address",
        "numberOfBytes": "20"
      },
      "t_bool": {
        "encoding": "inplace",
        "label": "bool",
        "numberOfBytes": "1"
      },
      "t_mapping(t_address,t_struct(User)8_storage)": {
        "encoding": "mapping",
        "key": "t_address",
        "label": "mapping(address => struct Users.User)",
        "numberOfBytes": "32",
        "value": "t_struct(User)8_storage"
      },
      "t_mapping(t_uint256,t_address)": {
        "encoding": "mapping",
        "key": "t_uint256",
        "label": "mapping(uint256 => address)",
        "numberOfBytes": "32",
        "value": "t_address"
      },
      "t_struct(User)8_storage": {
        "encoding": "inplace",
        "label": "struct Users.User",
        "members": [
          {
            "astId": 3,
            "contract": "Users.sol:Users",
            "label": "registered",
            "offset": 0,
            "slot": "0",
            "type": "t_bool"
          },
          {
            "astId": 7,
            "contract": "Users.sol:Users",
            "label": "deployedContracts",
            "offset": 0,
            "slot": "1",
            "type": "t_mapping(t_uint256,t_address)"
          }
        ],
        "numberOfBytes": "64"
      },
      "t_uint256": {
        "encoding": "inplace",
        "label": "uint256",
        "numberOfBytes": "32"
      }
    }
  },
  "userdoc": {
    "kind": "user",
    "methods": {},
    "version": 1
  }
}