{
  "abi": [
    {
      "inputs": [
        {
          "internalType": "address",
          "name": "_client",
          "type": "address"
        },
        {
          "internalType": "uint256",
          "name": "_paymentDate",
          "type": "uint256"
        },
        {
          "internalType": "uint256",
          "name": "_price",
          "type": "uint256"
        }
      ],
      "stateMutability": "payable",
      "type": "constructor"
    },
    {
      "inputs": [],
      "name": "releasePayment",
      "outputs": [],
      "stateMutability": "nonpayable",
      "type": "function"
    }
  ],
  "devdoc": {
    "kind": "dev",
    "methods": {},
    "version": 1
  },
  "evm": {
    "assembly": "    /* \"Job.sol\":69:814  contract Job {... */\n  mstore(0x40, 0x80)\n    /* \"Job.sol\":232:559  constructor(address _client, uint256 _paymentDate, uint256 _price) payable {... */\n  mload(0x40)\n  sub(codesize, bytecodeSize)\n  dup1\n  bytecodeSize\n  dup4\n  codecopy\n  dup2\n  add\n  0x40\n  dup2\n  swap1\n  mstore\n  tag_1\n  swap2\n  tag_2\n  jump\t// in\ntag_1:\n    /* \"Job.sol\":338:343  price */\n  sload(0x02)\n    /* \"Job.sol\":325:334  msg.value */\n  callvalue\n    /* \"Job.sol\":325:343  msg.value >= price */\n  lt\n  iszero\n    /* \"Job.sol\":317:389  require(msg.value >= price, \"Must have enough ETH to fund the contract\") */\n  tag_5\n  jumpi\n  mload(0x40)\n  shl(0xe5, 0x461bcd)\n  dup2\n  mstore\n    /* \"#utility.yul\":633:635   */\n  0x20\n    /* \"Job.sol\":317:389  require(msg.value >= price, \"Must have enough ETH to fund the contract\") */\n  0x04\n  dup3\n  add\n    /* \"#utility.yul\":615:636   */\n  mstore\n    /* \"#utility.yul\":672:674   */\n  0x29\n    /* \"#utility.yul\":652:670   */\n  0x24\n  dup3\n  add\n    /* \"#utility.yul\":645:675   */\n  mstore\n    /* \"#utility.yul\":711:745   */\n  0x4d757374206861766520656e6f7567682045544820746f2066756e6420746865\n    /* \"#utility.yul\":691:709   */\n  0x44\n  dup3\n  add\n    /* \"#utility.yul\":684:746   */\n  mstore\n  shl(0xba, 0x0818dbdb9d1c9858dd)\n    /* \"#utility.yul\":762:780   */\n  0x64\n  dup3\n  add\n    /* \"#utility.yul\":755:794   */\n  mstore\n    /* \"#utility.yul\":811:830   */\n  0x84\n  add\n    /* \"Job.sol\":317:389  require(msg.value >= price, \"Must have enough ETH to fund the contract\") */\n  mload(0x40)\n  dup1\n  swap2\n  sub\n  swap1\n  revert\ntag_5:\n    /* \"Job.sol\":399:405  worker */\n  0x00\n    /* \"Job.sol\":399:418  worker = msg.sender */\n  dup1\n  sload\n    /* \"Job.sol\":408:418  msg.sender */\n  caller\n  not(sub(shl(0xa0, 0x01), 0x01))\n    /* \"Job.sol\":399:418  worker = msg.sender */\n  swap2\n  dup3\n  and\n  or\n  swap1\n  swap2\n  sstore\n  0x01\n    /* \"Job.sol\":428:444  client = _client */\n  dup1\n  sload\n  swap1\n  swap2\n  and\n  sub(shl(0xa0, 0x01), 0x01)\n  swap5\n  swap1\n  swap5\n  and\n  swap4\n  swap1\n  swap4\n  or\n  swap1\n  swap3\n  sstore\n    /* \"Job.sol\":454:459  price */\n  0x02\n    /* \"Job.sol\":454:468  price = _price */\n  swap2\n  swap1\n  swap2\n  sstore\n    /* \"Job.sol\":485:494  msg.value */\n  callvalue\n    /* \"Job.sol\":478:482  bank */\n  0x03\n    /* \"Job.sol\":478:494  bank = msg.value */\n  sstore\n    /* \"Job.sol\":504:515  paymentDate */\n  0x04\n    /* \"Job.sol\":504:530  paymentDate = _paymentDate */\n  sstore\n    /* \"Job.sol\":540:544  paid */\n  0x05\n    /* \"Job.sol\":540:552  paid = false */\n  dup1\n  sload\n  not(0xff)\n  and\n  swap1\n  sstore\n    /* \"Job.sol\":69:814  contract Job {... */\n  jump(tag_9)\n    /* \"#utility.yul\":14:426   */\ntag_2:\n    /* \"#utility.yul\":102:108   */\n  0x00\n    /* \"#utility.yul\":110:116   */\n  dup1\n    /* \"#utility.yul\":118:124   */\n  0x00\n    /* \"#utility.yul\":171:173   */\n  0x60\n    /* \"#utility.yul\":159:168   */\n  dup5\n    /* \"#utility.yul\":150:157   */\n  dup7\n    /* \"#utility.yul\":146:169   */\n  sub\n    /* \"#utility.yul\":142:174   */\n  slt\n    /* \"#utility.yul\":139:191   */\n  iszero\n  tag_11\n  jumpi\n    /* \"#utility.yul\":187:188   */\n  0x00\n    /* \"#utility.yul\":184:185   */\n  dup1\n    /* \"#utility.yul\":177:189   */\n  revert\n    /* \"#utility.yul\":139:191   */\ntag_11:\n    /* \"#utility.yul\":213:229   */\n  dup4\n  mload\n  sub(shl(0xa0, 0x01), 0x01)\n    /* \"#utility.yul\":258:289   */\n  dup2\n  and\n    /* \"#utility.yul\":248:290   */\n  dup2\n  eq\n    /* \"#utility.yul\":238:308   */\n  tag_12\n  jumpi\n    /* \"#utility.yul\":304:305   */\n  0x00\n    /* \"#utility.yul\":301:302   */\n  dup1\n    /* \"#utility.yul\":294:306   */\n  revert\n    /* \"#utility.yul\":238:308   */\ntag_12:\n    /* \"#utility.yul\":372:374   */\n  0x20\n    /* \"#utility.yul\":357:375   */\n  dup6\n  add\n    /* \"#utility.yul\":351:376   */\n  mload\n    /* \"#utility.yul\":416:418   */\n  0x40\n    /* \"#utility.yul\":401:419   */\n  swap1\n  swap6\n  add\n    /* \"#utility.yul\":395:420   */\n  mload\n    /* \"#utility.yul\":327:332   */\n  swap1\n  swap7\n    /* \"#utility.yul\":351:376   */\n  swap5\n  swap6\n  pop\n    /* \"#utility.yul\":395:420   */\n  swap4\n    /* \"#utility.yul\":14:426   */\n  swap3\n  pop\n  pop\n  pop\n  jump\t// out\n    /* \"#utility.yul\":431:836   */\ntag_9:\n    /* \"Job.sol\":69:814  contract Job {... */\n  dataSize(sub_0)\n  dup1\n  dataOffset(sub_0)\n  0x00\n  codecopy\n  0x00\n  return\nstop\n\nsub_0: assembly {\n        /* \"Job.sol\":69:814  contract Job {... */\n      mstore(0x40, 0x80)\n      callvalue\n      dup1\n      iszero\n      tag_1\n      jumpi\n      0x00\n      dup1\n      revert\n    tag_1:\n      pop\n      jumpi(tag_2, lt(calldatasize, 0x04))\n      shr(0xe0, calldataload(0x00))\n      dup1\n      0xd116c8c4\n      eq\n      tag_3\n      jumpi\n    tag_2:\n      0x00\n      dup1\n      revert\n        /* \"Job.sol\":565:812  function releasePayment() external {... */\n    tag_3:\n      tag_4\n      tag_5\n      jump\t// in\n    tag_4:\n      stop\n    tag_5:\n        /* \"Job.sol\":637:648  paymentDate */\n      sload(0x04)\n        /* \"Job.sol\":618:633  block.timestamp */\n      timestamp\n        /* \"Job.sol\":618:648  block.timestamp >= paymentDate */\n      lt\n      iszero\n        /* \"Job.sol\":610:677  require(block.timestamp >= paymentDate, \"Payment date not reached\") */\n      tag_7\n      jumpi\n      mload(0x40)\n      shl(0xe5, 0x461bcd)\n      dup2\n      mstore\n        /* \"#utility.yul\":216:218   */\n      0x20\n        /* \"Job.sol\":610:677  require(block.timestamp >= paymentDate, \"Payment date not reached\") */\n      0x04\n      dup3\n      add\n        /* \"#utility.yul\":198:219   */\n      mstore\n        /* \"#utility.yul\":255:257   */\n      0x18\n        /* \"#utility.yul\":235:253   */\n      0x24\n      dup3\n      add\n        /* \"#utility.yul\":228:258   */\n      mstore\n        /* \"#utility.yul\":294:320   */\n      0x5061796d656e742064617465206e6f7420726561636865640000000000000000\n        /* \"#utility.yul\":274:292   */\n      0x44\n      dup3\n      add\n        /* \"#utility.yul\":267:321   */\n      mstore\n        /* \"#utility.yul\":338:356   */\n      0x64\n      add\n        /* \"Job.sol\":610:677  require(block.timestamp >= paymentDate, \"Payment date not reached\") */\n    tag_8:\n      mload(0x40)\n      dup1\n      swap2\n      sub\n      swap1\n      revert\n    tag_7:\n        /* \"Job.sol\":696:700  paid */\n      and(0xff, sload(0x05))\n        /* \"Job.sol\":695:700  !paid */\n      iszero\n        /* \"Job.sol\":687:725  require(!paid, \"Payment already made\") */\n      tag_10\n      jumpi\n      mload(0x40)\n      shl(0xe5, 0x461bcd)\n      dup2\n      mstore\n        /* \"#utility.yul\":569:571   */\n      0x20\n        /* \"Job.sol\":687:725  require(!paid, \"Payment already made\") */\n      0x04\n      dup3\n      add\n        /* \"#utility.yul\":551:572   */\n      mstore\n        /* \"#utility.yul\":608:610   */\n      0x14\n        /* \"#utility.yul\":588:606   */\n      0x24\n      dup3\n      add\n        /* \"#utility.yul\":581:611   */\n      mstore\n        /* \"#utility.yul\":647:669   */\n      0x5061796d656e7420616c7265616479206d616465000000000000000000000000\n        /* \"#utility.yul\":627:645   */\n      0x44\n      dup3\n      add\n        /* \"#utility.yul\":620:670   */\n      mstore\n        /* \"#utility.yul\":687:705   */\n      0x64\n      add\n        /* \"Job.sol\":687:725  require(!paid, \"Payment already made\") */\n      tag_8\n        /* \"#utility.yul\":367:711   */\n      jump\n        /* \"Job.sol\":687:725  require(!paid, \"Payment already made\") */\n    tag_10:\n        /* \"Job.sol\":736:740  paid */\n      0x05\n        /* \"Job.sol\":736:747  paid = true */\n      dup1\n      sload\n      not(0xff)\n      and\n        /* \"Job.sol\":743:747  true */\n      0x01\n        /* \"Job.sol\":736:747  paid = true */\n      swap1\n      dup2\n      or\n      swap1\n      swap2\n      sstore\n        /* \"Job.sol\":765:771  client */\n      sload\n        /* \"Job.sol\":782:786  bank */\n      sload(0x03)\n        /* \"Job.sol\":757:787  payable(client).transfer(bank) */\n      mload(0x40)\n        /* \"Job.sol\":765:771  client */\n      0xffffffffffffffffffffffffffffffffffffffff\n      swap1\n      swap3\n      and\n      swap2\n        /* \"Job.sol\":757:787  payable(client).transfer(bank) */\n      dup2\n      iszero\n      0x08fc\n      mul\n      swap2\n        /* \"Job.sol\":782:786  bank */\n      swap1\n        /* \"Job.sol\":736:740  paid */\n      0x00\n        /* \"Job.sol\":757:787  payable(client).transfer(bank) */\n      dup2\n        /* \"Job.sol\":736:740  paid */\n      dup2\n        /* \"Job.sol\":757:787  payable(client).transfer(bank) */\n      dup2\n        /* \"Job.sol\":782:786  bank */\n      dup6\n        /* \"Job.sol\":765:771  client */\n      dup9\n        /* \"Job.sol\":757:787  payable(client).transfer(bank) */\n      dup9\n      call\n      swap4\n      pop\n      pop\n      pop\n      pop\n      iszero\n      dup1\n      iszero\n      tag_14\n      jumpi\n      returndatasize\n      0x00\n      dup1\n      returndatacopy\n      revert(0x00, returndatasize)\n    tag_14:\n      pop\n        /* \"Job.sol\":804:805  0 */\n      0x00\n        /* \"Job.sol\":797:801  bank */\n      0x03\n        /* \"Job.sol\":797:805  bank = 0 */\n      sstore\n        /* \"Job.sol\":565:812  function releasePayment() external {... */\n      jump\t// out\n\n    auxdata: 0xa2646970667358221220cbfc20fb436b08936505a1a5f70572b1643ecc7df28f8023c173d835cee87cfb64736f6c63430008190033\n}\n",
    "bytecode": {
      "linkReferences": {},
      "object": "6080604052604051610292380380610292833981016040819052610022916100d4565b60025434101561008a5760405162461bcd60e51b815260206004820152602960248201527f4d757374206861766520656e6f7567682045544820746f2066756e64207468656044820152680818dbdb9d1c9858dd60ba1b606482015260840160405180910390fd5b5f8054336001600160a01b031991821617909155600180549091166001600160a01b039490941693909317909255600291909155346003556004556005805460ff19169055610113565b5f805f606084860312156100e6575f80fd5b83516001600160a01b03811681146100fc575f80fd5b602085015160409095015190969495509392505050565b610172806101205f395ff3fe608060405234801561000f575f80fd5b5060043610610029575f3560e01c8063d116c8c41461002d575b5f80fd5b610035610037565b005b60045442101561008e5760405162461bcd60e51b815260206004820152601860248201527f5061796d656e742064617465206e6f742072656163686564000000000000000060448201526064015b60405180910390fd5b60055460ff16156100e15760405162461bcd60e51b815260206004820152601460248201527f5061796d656e7420616c7265616479206d6164650000000000000000000000006044820152606401610085565b6005805460ff191660019081179091555460035460405173ffffffffffffffffffffffffffffffffffffffff9092169181156108fc0291905f818181858888f19350505050158015610135573d5f803e3d5ffd5b505f60035556fea2646970667358221220cbfc20fb436b08936505a1a5f70572b1643ecc7df28f8023c173d835cee87cfb64736f6c63430008190033",
      "opcodes": "PUSH1 0x80 PUSH1 0x40 MSTORE PUSH1 0x40 MLOAD PUSH2 0x292 CODESIZE SUB DUP1 PUSH2 0x292 DUP4 CODECOPY DUP2 ADD PUSH1 0x40 DUP2 SWAP1 MSTORE PUSH2 0x22 SWAP2 PUSH2 0xD4 JUMP JUMPDEST PUSH1 0x2 SLOAD CALLVALUE LT ISZERO PUSH2 0x8A JUMPI PUSH1 0x40 MLOAD PUSH3 0x461BCD PUSH1 0xE5 SHL DUP2 MSTORE PUSH1 0x20 PUSH1 0x4 DUP3 ADD MSTORE PUSH1 0x29 PUSH1 0x24 DUP3 ADD MSTORE PUSH32 0x4D757374206861766520656E6F7567682045544820746F2066756E6420746865 PUSH1 0x44 DUP3 ADD MSTORE PUSH9 0x818DBDB9D1C9858DD PUSH1 0xBA SHL PUSH1 0x64 DUP3 ADD MSTORE PUSH1 0x84 ADD PUSH1 0x40 MLOAD DUP1 SWAP2 SUB SWAP1 REVERT JUMPDEST PUSH0 DUP1 SLOAD CALLER PUSH1 0x1 PUSH1 0x1 PUSH1 0xA0 SHL SUB NOT SWAP2 DUP3 AND OR SWAP1 SWAP2 SSTORE PUSH1 0x1 DUP1 SLOAD SWAP1 SWAP2 AND PUSH1 0x1 PUSH1 0x1 PUSH1 0xA0 SHL SUB SWAP5 SWAP1 SWAP5 AND SWAP4 SWAP1 SWAP4 OR SWAP1 SWAP3 SSTORE PUSH1 0x2 SWAP2 SWAP1 SWAP2 SSTORE CALLVALUE PUSH1 0x3 SSTORE PUSH1 0x4 SSTORE PUSH1 0x5 DUP1 SLOAD PUSH1 0xFF NOT AND SWAP1 SSTORE PUSH2 0x113 JUMP JUMPDEST PUSH0 DUP1 PUSH0 PUSH1 0x60 DUP5 DUP7 SUB SLT ISZERO PUSH2 0xE6 JUMPI PUSH0 DUP1 REVERT JUMPDEST DUP4 MLOAD PUSH1 0x1 PUSH1 0x1 PUSH1 0xA0 SHL SUB DUP2 AND DUP2 EQ PUSH2 0xFC JUMPI PUSH0 DUP1 REVERT JUMPDEST PUSH1 0x20 DUP6 ADD MLOAD PUSH1 0x40 SWAP1 SWAP6 ADD MLOAD SWAP1 SWAP7 SWAP5 SWAP6 POP SWAP4 SWAP3 POP POP POP JUMP JUMPDEST PUSH2 0x172 DUP1 PUSH2 0x120 PUSH0 CODECOPY PUSH0 RETURN INVALID PUSH1 0x80 PUSH1 0x40 MSTORE CALLVALUE DUP1 ISZERO PUSH2 0xF JUMPI PUSH0 DUP1 REVERT JUMPDEST POP PUSH1 0x4 CALLDATASIZE LT PUSH2 0x29 JUMPI PUSH0 CALLDATALOAD PUSH1 0xE0 SHR DUP1 PUSH4 0xD116C8C4 EQ PUSH2 0x2D JUMPI JUMPDEST PUSH0 DUP1 REVERT JUMPDEST PUSH2 0x35 PUSH2 0x37 JUMP JUMPDEST STOP JUMPDEST PUSH1 0x4 SLOAD TIMESTAMP LT ISZERO PUSH2 0x8E JUMPI PUSH1 0x40 MLOAD PUSH3 0x461BCD PUSH1 0xE5 SHL DUP2 MSTORE PUSH1 0x20 PUSH1 0x4 DUP3 ADD MSTORE PUSH1 0x18 PUSH1 0x24 DUP3 ADD MSTORE PUSH32 0x5061796D656E742064617465206E6F7420726561636865640000000000000000 PUSH1 0x44 DUP3 ADD MSTORE PUSH1 0x64 ADD JUMPDEST PUSH1 0x40 MLOAD DUP1 SWAP2 SUB SWAP1 REVERT JUMPDEST PUSH1 0x5 SLOAD PUSH1 0xFF AND ISZERO PUSH2 0xE1 JUMPI PUSH1 0x40 MLOAD PUSH3 0x461BCD PUSH1 0xE5 SHL DUP2 MSTORE PUSH1 0x20 PUSH1 0x4 DUP3 ADD MSTORE PUSH1 0x14 PUSH1 0x24 DUP3 ADD MSTORE PUSH32 0x5061796D656E7420616C7265616479206D616465000000000000000000000000 PUSH1 0x44 DUP3 ADD MSTORE PUSH1 0x64 ADD PUSH2 0x85 JUMP JUMPDEST PUSH1 0x5 DUP1 SLOAD PUSH1 0xFF NOT AND PUSH1 0x1 SWAP1 DUP2 OR SWAP1 SWAP2 SSTORE SLOAD PUSH1 0x3 SLOAD PUSH1 0x40 MLOAD PUSH20 0xFFFFFFFFFFFFFFFFFFFFFFFFFFFFFFFFFFFFFFFF SWAP1 SWAP3 AND SWAP2 DUP2 ISZERO PUSH2 0x8FC MUL SWAP2 SWAP1 PUSH0 DUP2 DUP2 DUP2 DUP6 DUP9 DUP9 CALL SWAP4 POP POP POP POP ISZERO DUP1 ISZERO PUSH2 0x135 JUMPI RETURNDATASIZE PUSH0 DUP1 RETURNDATACOPY RETURNDATASIZE PUSH0 REVERT JUMPDEST POP PUSH0 PUSH1 0x3 SSTORE JUMP INVALID LOG2 PUSH5 0x6970667358 0x22 SLT KECCAK256 0xCB 0xFC KECCAK256 0xFB NUMBER PUSH12 0x8936505A1A5F70572B1643E 0xCC PUSH30 0xF28F8023C173D835CEE87CFB64736F6C6343000819003300000000000000 "
    },
    "gasEstimates": {
      "creation": {
        "codeDepositCost": "74000",
        "executionCost": "infinite",
        "totalCost": "infinite"
      },
      "external": {
        "releasePayment()": "infinite"
      }
    },
    "methodIdentifiers": {
      "releasePayment()": "d116c8c4"
    }
  },
  "storageLayout": {
    "storage": [
      {
        "astId": 3,
        "contract": "Job.sol:Job",
        "label": "worker",
        "offset": 0,
        "slot": "0",
        "type": "t_address"
      },
      {
        "astId": 5,
        "contract": "Job.sol:Job",
        "label": "client",
        "offset": 0,
        "slot": "1",
        "type": "t_address"
      },
      {
        "astId": 7,
        "contract": "Job.sol:Job",
        "label": "price",
        "offset": 0,
        "slot": "2",
        "type": "t_uint256"
      },
      {
        "astId": 9,
        "contract": "Job.sol:Job",
        "label": "bank",
        "offset": 0,
        "slot": "3",
        "type": "t_uint256"
      },
      {
        "astId": 11,
        "contract": "Job.sol:Job",
        "label": "paymentDate",
        "offset": 0,
        "slot": "4",
        "type": "t_uint256"
      },
      {
        "astId": 13,
        "contract": "Job.sol:Job",
        "label": "paid",
        "offset": 0,
        "slot": "5",
        "type": "t_bool"
      }
    ],
    "types": {
      "t_address": {
        "encoding": "inplace",
        "label": "address",
        "numberOfBytes": "20"
      },
      "t_bool": {
        "encoding": "inplace",
        "label": "bool",
        "numberOfBytes": "1"
      },
      "t_uint256": {
        "encoding": "inplace",
        "label": "uint256",
        "numberOfBytes": "32"
      }
    }
  },
  "userdoc": {
    "kind": "user",
    "methods": {},
    "version": 1
  }
}